:100000000C942A000C9447000C9447000C94470071
:100010000C9447000C9447000C947C150C944700FA
:100020000C9447000C9447000C947B120C944812DB
:100030000C9447000C9447000C9447000C94470024
:100040000C9447000C9447000C9447000C94470014
:100050000C94470011241FBECFE5D8E0DEBFCDBF12
:1000600012E0A0E6B0E0E0E7F5E402C005900D92F2
:10007000A034B107D9F712E0A0E4B2E001C01D92AC
:10008000AB34B107E1F70E9417070C94B6220C9429
:100090000000EF92FF920F931F937B018C0120E0F1
:1000A00030E040E05FE40E94F50388238CF0C80153
:1000B000B70120E030E040E05FE40E94C1010E940F
:1000C00055049B01AC01205030404040504806C0D0
:1000D000C801B7010E9455049B01AC01B901CA01D6
:1000E0001F910F91FF90EF900895A0E0B0E0EBE733
:1000F000F0E00C943A22DC012B01FA019C91923041
:1001000008F439C1EB018881823008F433C194309E
:1001100069F4843009F02FC111969C91119789815F
:10012000981709F428C1AAE0B1E025C1843009F488
:1001300021C18230A9F4923009F01DC19A01AD01AC
:1001400088E0EA010990AE01E90109929E0181501F
:10015000C1F7E201898111969C918923818308C1AD
:10016000923009F407C112962D903C901397EB0141
:100170008A819B811496AD90BD90CD90DC901797AD
:10018000EC80FD800E811F819101281B390BB90184
:1001900037FF04C066277727621B730B6032710537
:1001A0000CF061C0121613066CF537014801062EDB
:1001B00004C096948794779467940A94D2F721E0C8
:1001C00030E040E050E004C0220F331F441F551FB1
:1001D0006A95D2F721503040404050402E213F21B7
:1001E00040235123211531054105510521F021E01E
:1001F00030E040E050E079018A01E628F72808293C
:1002000019293CC0232BD1F1260E371E350146019A
:10021000062E04C096948794779467940A94D2F734
:1002200021E030E040E050E004C0220F331F441FC3
:10023000551F6A95D2F721503040404050402A2146
:100240003B214C215D21211531054105510521F04E
:1002500021E030E040E050E059016A01A628B728CB
:10026000C828D9280BC0821593052CF01C01AA249C
:10027000BB24650103C0EE24FF24870111969C91E5
:10028000D20111968C91981709F445C0992339F041
:10029000A80197012A193B094C095D0906C0A6016E
:1002A00095012E193F09400B510B57FD08C01182D3
:1002B0003382228224833583468357831DC081E0A5
:1002C00081833382228288279927DC01821B930B4A
:1002D000A40BB50B84839583A683B7830DC0220F2F
:1002E000331F441F551F24833583468357838281E0
:1002F000938101979383828324813581468157813D
:10030000DA01C9010197A109B1098F5F9F4FAF4F72
:10031000BF4328F30BC0918333822282EA0CFB1C7B
:100320000C1D1D1DE482F5820683178383E0808304
:10033000248135814681578157FF1AC0C901AA27F8
:1003400097FDA095BA2F81709070A070B0705695EF
:10035000479537952795822B932BA42BB52B848318
:100360009583A683B7838281938101969383828349
:10037000DF0101C0D201CD01CDB7DEB7E2E10C94BF
:100380005622A0E2B0E0E7ECF1E00C94462269834B
:100390007A838B839C832D833E834F835887E9E048
:1003A000EE2EF12CEC0EFD1ECE010196B7010E943F
:1003B00046068E010F5E1F4FCE010596B8010E94C2
:1003C00046068A8991E089278A8BC701B801AE0168
:1003D000475E5F4F0E9475000E947105A096E6E09F
:1003E0000C946222A0E2B0E0E8EFF1E00C94462227
:1003F00069837A838B839C832D833E834F835887C5
:10040000F9E0EF2EF12CEC0EFD1ECE010196B701A6
:100410000E9446068E010F5E1F4FCE010596B80161
:100420000E944606C701B801AE01475E5F4F0E94B9
:1004300075000E947105A096E6E00C946222A0E28D
:10044000B0E0E5E2F2E00C943A2269837A838B8390
:100450009C832D833E834F835887CE010196BE0136
:10046000675F7F4F0E944606CE010596BE016F5E14
:100470007F4F0E9446069985923088F089898230A4
:10048000C8F0943019F4823051F404C0843029F457
:10049000923081F48AE091E0C6C0923049F420E0C5
:1004A0009A858A89981321E02A87CE010996BBC0D4
:1004B000823049F420E09A858A89981321E02A8BBA
:1004C000CE014196B0C02D843E844F8458886D88FB
:1004D0007E888F88988CEE24FF248701AA24BB2471
:1004E000650140E050E060E070E0E0E0F0E0C10174
:1004F00081709070892BE9F0E60CF71C081D191D1E
:100500009A01AB012A0D3B1D4C1D5D1D80E090E062
:10051000A0E0B0E0E614F7040805190520F481E036
:1005200090E0A0E0B0E0BA01A901480F591F6A1F8E
:100530007B1FAA0CBB1CCC1CDD1C97FE08C081E0F5
:1005400090E0A0E0B0E0A82AB92ACA2ADB2A3196B6
:10055000E032F10549F0660C771C881C991C569412
:10056000479437942794C3CFFA85EA892B893C892D
:100570008B859C85280F391F2E5F3F4F17C0CA01FE
:1005800081709070892B61F016950795F794E79428
:1005900080E090E0A0E0B0E8E82AF92A0A2B1B2BC3
:1005A00076956795579547952F5F3F4F77FDE7CF36
:1005B0000CC0440F551F661F771F17FD4160EE0CDE
:1005C000FF1C001F111F21503040403090E05907A0
:1005D00090E0690790E4790760F32B8F3C8FDB0193
:1005E000CA018F779070A070B07080349105A1051A
:1005F000B10561F447FD0AC0E114F10401051105DC
:1006000029F0405C5F4F6F4F7F4F40781A8EFE1786
:1006100011F081E08A8F4D8F5E8F6F8F78A383E01A
:10062000898FCE0149960E947105A096E2E10C9453
:100630005622A8E1B0E0EFE1F3E00C944222698396
:100640007A838B839C832D833E834F835887B9E0C5
:10065000EB2EF12CEC0EFD1ECE010196B7010E948F
:1006600046068E010F5E1F4FCE010596B8010E940F
:1006700046062985223008F47EC03989323010F4CC
:10068000B8017CC08A859A8989278A87243011F02D
:10069000223031F4231709F06EC06AE071E06EC0B9
:1006A000343039F41D861E861F86188A1C861B86E8
:1006B00004C0323021F484E08987B7015FC02B8504
:1006C0003C858B899C89281B390B3C872B87ED84C3
:1006D000FE840F851889AD88BE88CF88D88CEA142F
:1006E000FB040C051D0540F4EE0CFF1C001F111F40
:1006F000215030403C872B8720E030E040E050E044
:1007000080E090E0A0E0B0E460E070E0EA14FB0478
:100710000C051D0540F0282B392B4A2B5B2BEA18C2
:10072000FB080C091D09B695A79597958795EE0CC2
:10073000FF1C001F111F6F5F7F4F6F31710531F775
:10074000DA01C9018F779070A070B0708034910584
:10075000A105B10561F427FD0AC0E114F10401050A
:10076000110529F0205C3F4F4F4F5F4F20782D87B8
:100770003E874F87588BBE01675F7F4FCB010E943A
:1007800071056896EAE00C945E22A8E1B0E0EBEC1B
:10079000F3E00C94462269837A838B839C832D83B8
:1007A0003E834F83588789E0E82EF12CEC0EFD1E26
:1007B000CE010196B7010E9446068E010F5E1F4FC3
:1007C000CE010596B8010E9446068985823040F028
:1007D0008989823028F0C701B8010E94BE0601C095
:1007E0008FEF6896E6E00C946222A8E1B0E0EBEFB0
:1007F000F3E00C94462269837A838B839C832D8358
:100800003E834F83588789E0E82EF12CEC0EFD1EC5
:10081000CE010196B7010E9446068E010F5E1F4F62
:10082000CE010596B8010E9446068985823040F0C7
:100830008989823028F0C701B8010E94BE0601C034
:100840008FEF6896E6E00C946222A8E1B0E0EBE25C
:10085000F4E00C94462269837A838B839C832D83F6
:100860003E834F83588789E0E82EF12CEC0EFD1E65
:10087000CE010196B7010E9446068E010F5E1F4F02
:10088000CE010596B8010E9446068985823040F067
:100890008989823028F0C701B8010E94BE0601C0D4
:1008A00081E06896E6E00C946222ACE0B0E0EBE513
:1008B000F4E00C944A2269837A838B839C83CE0173
:1008C0000196BE016B5F7F4F0E9446068D8182308C
:1008D00061F1823050F1843021F48E81882351F10E
:1008E0002EC02F81388537FD20C06E812F31310514
:1008F0001CF06623F9F023C08EE190E0821B930B7D
:1009000029853A854B855C8504C056954795379572
:1009100027958A95D2F76623B1F05095409530958A
:1009200021953F4F4F4F5F4F0EC020E030E040E039
:1009300050E009C02FEF3FEF4FEF5FE704C020E02A
:1009400030E040E050E8B901CA012C96E2E00C9496
:100950006622A8E0B0E0EFEAF4E00C9442227B01CA
:100960008C01611571058105910519F482E0898377
:1009700060C083E089838EE1C82ED12CDC82CB82DB
:10098000ED82FE820F831887C801B7010E942205FD
:10099000FC013197F7FF3BC0222733272E1B3F0B6B
:1009A00057016801022E04C0D694C794B794A79447
:1009B0000A94D2F740E050E060E070E081E090E01F
:1009C000A0E0B0E004C0880F991FAA1FBB1F2A95A2
:1009D000D2F70197A109B1098E219F21A023B1234C
:1009E0000097A105B10521F041E050E060E070E022
:1009F0004A295B296C297D294D835E836F83788723
:100A00008EE190E08E1B9F0B9C838B8312C03097EE
:100A100081F00E2E04C0EE0CFF1C001F111F0A9463
:100A2000D2F7ED82FE820F831887CE1ADF0ADC82AE
:100A3000CB821A82CE0101960E9471052896EAE0C7
:100A40000C945E22EF92FF920F931F937B018C0117
:100A500080E0E81680E0F80681E0080780E01807EB
:100A600088F48FEFE816F1040105110531F028F044
:100A700088E090E0A0E0B0E017C080E090E0A0E067
:100A8000B0E012C080E0E81680E0F80680E00807D9
:100A900081E0180728F088E190E0A0E0B0E004C011
:100AA00080E190E0A0E0B0E020E230E040E050E003
:100AB000281B390B4A0B5B0B04C016950795F7945E
:100AC000E7948A95D2F7F701EE5EFE4F8081281BEE
:100AD000310941095109C9011F910F91FF90EF9010
:100AE0000895DF92EF92FF920F931F93FC01E48031
:100AF000F58006811781D1808081823048F480E0C2
:100B000090E0A0E1B0E0E82AF92A0A2B1B2BA5C04F
:100B1000843009F49FC0823021F4EE24FF24870141
:100B200005C0E114F1040105110519F4E0E0F0E05D
:100B300096C0628173819FEF623879070CF05BC0C9
:100B400022E83FEF261B370B2A3131052CF020E03D
:100B500030E040E050E02AC0B801A701022E04C0F6
:100B600076956795579547950A94D2F781E090E07E
:100B7000A0E0B0E004C0880F991FAA1FBB1F2A95F0
:100B8000D2F70197A109B1098E219F21A023B1239A
:100B90000097A105B10521F081E090E0A0E0B0E070
:100BA0009A01AB01282B392B4A2B5B2BDA01C901A7
:100BB0008F779070A070B07080349105A105B10559
:100BC00039F427FF09C0205C3F4F4F4F5F4F04C0EF
:100BD000215C3F4F4F4F5F4FE0E0F0E02030A0E05E
:100BE0003A07A0E04A07A0E45A0710F0E1E0F0E07D
:100BF00079018A0127C06038710564F5FB01E1586D
:100C0000FF4FD801C7018F779070A070B07080340B
:100C10009105A105B10539F4E7FE0DC080E490E02F
:100C2000A0E0B0E004C08FE390E0A0E0B0E0E80E08
:100C3000F91E0A1F1B1F17FF05C016950795F7948D
:100C4000E794319687E016950795F794E7948A958F
:100C5000D1F705C0EE24FF248701EFEFF0E06E2FFF
:100C6000679566276795902F9F77D794DD24D79453
:100C70008E2F8695492F462B582F5D29B701CA0123
:100C80001F910F91FF90EF90DF900895FC01DB0121
:100C9000408151812281622F6F7770E0221F2227CD
:100CA000221F9381892F880F822B282F30E0991FD4
:100CB0009927991F11969C93119721153105A9F534
:100CC000411551056105710511F482E037C082E8D4
:100CD0009FEF13969C938E9312979A01AB0167E056
:100CE000220F331F441F551F6A95D1F783E08C9361
:100CF0000DC0220F331F441F551F12968D919C91DA
:100D00001397019713969C938E931297203080E04F
:100D1000380780E0480780E4580758F314962D936D
:100D20003D934D935C93179708952F3F310579F4C8
:100D3000411551056105710519F484E08C930895FE
:100D400064FF03C081E08C9312C01C9210C02F5727
:100D5000304013963C932E93129783E08C9387E058
:100D6000440F551F661F771F8A95D1F7706414963C
:100D70004D935D936D937C93179708951F93DC01BA
:100D8000FB019C91923008F447C08081823008F4C6
:100D900043C0943051F411961C91843099F58181AF
:100DA000682F70E0611B71093FC0843021F09230E0
:100DB00031F48230B9F18181882389F12DC01196F7
:100DC0001C9111978230F1F081811817D9F4129695
:100DD0002D913C911397828193818217930794F010
:100DE00028173907BCF014968D919D910D90BC91F8
:100DF000A02D2481358146815781281739074A075C
:100E00005B0718F4112341F00AC082179307A40767
:100E1000B50740F4112319F061E070E005C06FEFF1
:100E20007FEF02C060E070E0CB011F910895DF9377
:100E3000CF93CDB7DEB7EB970FB6F894DEBF0FBEFA
:100E4000CDBF8FEF89AF0E9481090E941A0A24E466
:100E500032E085E1B9010E947C0E80914402882332
:100E600049F00E941F0B1092440285E160E00E944D
:100E7000630EF3CF0E94AD1B80E690E00E94F31A50
:100E800081E060E00E940F1B8EE690E00E94F31A62
:100E90000E949F0E89AF89AD8F3FD1F389AD83301A
:100EA000A1F40E94AD1B8FE790E00E94F31A81E04D
:100EB00060E00E940F1B8DE890E00E94F31A0E94F0
:100EC0009F0E89AF89AD8F3FD1F389AD282F30E0D8
:100ED0003BAF2AAF8AAD9BAD8230910509F498C033
:100EE0002AAD3BAD2330310534F48AAD9BAD813062
:100EF000910571F08DC12AAD3BAD2430310509F467
:100F000007C18AAD9BAD8530910509F4A6CF80C19C
:100F10000E940E0D882319F00E94D40C9ECF0E94CF
:100F2000AD1B88E990E00E94F31A80E090E0AAE708
:100F3000B4E48DAB9EABAFABB8AF6DA97EA98FA962
:100F400098AD20E030E04AEF54E40E941F02DC013B
:100F5000CB0189AB9AABABABBCAB69A97AA98BA926
:100F60009CA920E030E040E85FE30E94250488234C
:100F70002CF481E090E098AB8FA73FC069A97AA9D3
:100F80008BA99CA920E03FEF4FE757E40E94C503DF
:100F900018164CF56DA97EA98FA998AD20E030E018
:100FA00040E251E40E941F02DC01CB01BC01CD01F3
:100FB0000E944900DC01CB0198AB8FA70FC088ECE1
:100FC00090E09EA78DA78DA59EA50197F1F79EA7FE
:100FD0008DA78FA598A9019798AB8FA78FA598A9E2
:100FE000009769F73ACF69A97AA98BA99CA90E94B1
:100FF0004900DC01CB0198AB8FA78FA598A99CA7CE
:101000008BA78BA59CA50197F1F79CA78BA725CF54
:101010000E940E0D882319F00E941F0B1ECF0E9404
:10102000AD1B88E990E00E94F31A80E090E0AAE707
:10103000B4E48FA398A7A9A7BAA76FA178A589A59B
:101040009AA520E030E04AEF54E40E941F02DC0140
:10105000CB018BA39CA3ADA3BEA36BA17CA18DA14F
:101060009EA120E030E040E85FE30E942504882351
:101070002CF481E090E09AA389A33FC06BA17CA1EE
:101080008DA19EA120E03FEF4FE757E40E94C503EA
:1010900018164CF56FA178A589A59AA520E030E037
:1010A00040E251E40E941F02DC01CB01BC01CD01F2
:1010B0000E944900DC01CB019AA389A30FC088ECF0
:1010C00090E098A38F8F8F8D98A10197F1F798A347
:1010D0008F8F89A19AA101979AA389A389A19AA127
:1010E000009769F7BACE6BA17CA18DA19EA10E9449
:1010F0004900DC01CB019AA389A389A19AA19E8F03
:101100008D8F8D8D9E8D0197F1F79E8F8D8FA5CE42
:101110000E940E0D882319F00E940D0E9ECE0E9493
:10112000AD1B88E990E00E94F31A80E090E0AAE706
:10113000B4E4898F9A8FAB8FBC8F698D7A8D8B8D3C
:101140009C8D20E030E04AEF54E40E941F02DC0155
:10115000CB018D8B9E8BAF8BB88F6D897E898F89EC
:10116000988D20E030E040E85FE30E94250488236A
:101170002CF481E090E09C8B8B8B3FC06D897E8945
:101180008F89988D20E03FEF4FE757E40E94C50319
:1011900018164CF5698D7A8D8B8D9C8D20E030E092
:1011A00040E251E40E941F02DC01CB01BC01CD01F1
:1011B0000E944900DC01CB019C8B8B8B0FC088EC1B
:1011C00090E09A8B898B89899A890197F1F79A8B9C
:1011D000898B8B899C8901979C8B8B8B8B899C89B4
:1011E000009769F73ACE6D897E898F89988D0E9424
:1011F0004900DC01CB019C8B8B8B8B899C89988B64
:101200008F878F8598890197F1F7988B8F8725CEE7
:101210000E94AD1B88EA90E00E94F31A80E090E003
:10122000A6E9B3E48B879C87AD87BE876B857C85F9
:101230008D859E8520E030E04AEF54E40E941F0235
:10124000DC01CB018F839887A987BA876F81788566
:1012500089859A8520E030E040E85FE30E9425041C
:1012600088232CF481E090E09E838D833FC06F81C2
:10127000788589859A8520E03FEF4FE757E40E9403
:10128000C50318164CF56B857C858D859E8520E001
:1012900030E040E251E40E941F02DC01CB01BC01BE
:1012A000CD010E944900DC01CB019E838D830FC0DC
:1012B00088EC90E09C838B838B819C810197F1F774
:1012C0009C838B838D819E8101979E838D838D81ED
:1012D0009E81009769F7C1CD6F81788589859A8550
:1012E0000E944900DC01CB019E838D838D819E810C
:1012F0009A83898389819A810197F1F79A838983F7
:10130000ACCDDF93CF93CDB7DEB7A2970FB6F894ED
:10131000DEBF0FBECDBFCE0101969D8B8C8BACE2A4
:10132000B2E0BF8BAE8BB3E0B88FEE89FF8900804F
:101330008E899F8901969F8B8E8BAC89BD890C927B
:10134000EC89FD893196FD8BEC8BF88DF150F88F8F
:10135000888D882351F7DE011496BA8FA98FE9E2B0
:10136000F2E0FC8FEB8FF3E0FD8FAB8DBC8D0C902A
:10137000EB8DFC8D3196FC8FEB8FA98DBA8D0C9285
:10138000E98DFA8D3196FA8FE98FFD8DF150FD8F41
:101390008D8D882351F7DE011796BF8FAE8FE2E265
:1013A000F2E0F9A3E8A3F7E0FAA3A8A1B9A10C9091
:1013B000E8A1F9A13196F9A3E8A3AE8DBF8D0C92F7
:1013C000EE8DFF8D3196FF8FEE8FFAA1F150FAA3CB
:1013D0008AA1882351F786E0FE013E96DF01982F0F
:1013E0001D929A95E9F786E0888B0E94781E0E94EC
:1013F00011160E945B0FCE0104960E94AF15CE011C
:1014000001960E943C1CCE0107960E946B1DCE01E6
:101410000E960E94081089E39EE00E9421120E940D
:10142000DD21A2960FB6F894DEBF0FBECDBFCF91DF
:10143000DF910895DF93CF93CDB7DEB76C970FB6EA
:10144000F894DEBF0FBECDBF84EB90E00E94F31A8C
:1014500080E090E0A8ECB2E4898F9A8FAB8FBC8FCC
:10146000698D7A8D8B8D9C8D20E030E04AEF54E4BD
:101470000E941F02DC01CB018D8B9E8BAF8BB88F3E
:101480006D897E898F89988D20E030E040E85FE3A8
:101490000E94250488232CF481E090E09C8B8B8BA8
:1014A0003FC06D897E898F89988D20E03FEF4FE79F
:1014B00057E40E94C50318164CF5698D7A8D8B8D03
:1014C0009C8D20E030E040E251E40E941F02DC01EC
:1014D000CB01BC01CD010E944900DC01CB019C8BFA
:1014E0008B8B0FC088EC90E09A8B898B89899A89C5
:1014F0000197F1F79A8B898B8B899C8901979C8B3B
:101500008B8B8B899C89009769F714C06D897E89C4
:101510008F89988D0E944900DC01CB019C8B8B8BBD
:101520008B899C89988B8F878F8598890197F1F794
:10153000988B8F8781E065E00E940F1B84EC90E020
:101540000E94F31A80E090E0A8ECB2E48B879C87BD
:10155000AD87BE876B857C858D859E8520E030E0DC
:101560004AEF54E40E941F02DC01CB018F8398876D
:10157000A987BA876F81788589859A8520E030E0D0
:1015800040E85FE30E94250488232CF481E090E08A
:101590009E838D833FC06F81788589859A8520E001
:1015A0003FEF4FE757E40E94C50318164CF56B85D3
:1015B0007C858D859E8520E030E040E251E40E94EC
:1015C0001F02DC01CB01BC01CD010E944900DC01FE
:1015D000CB019E838D830FC088EC90E09C838B832E
:1015E0008B819C810197F1F79C838B838D819E81F8
:1015F00001979E838D838D819E81009769F714C02A
:101600006F81788589859A850E944900DC01CB012C
:101610009E838D838D819E819A83898389819A811E
:101620000197F1F79A8389830E94AD1B6C960FB6E0
:10163000F894DEBF0FBECDBFCF91DF910895DF9349
:10164000CF93CDB7DEB7A5970FB6F894DEBF0FBE28
:10165000CDBF8FEF89A31AA21BA21CA21DA281E0FD
:101660008F8F0E94AD1B89EC90E00E94F31A81E0FD
:1016700060E00E940F1B18A21CC00E949F0E89A34D
:1016800089A18F3FD1F388A1882F90E0FC01E05C15
:10169000FD4F89A1808388A1882F90E0FC01E05C48
:1016A000FD4F8081882F90E00E948A1B88A18F5F68
:1016B00088A388A1843008F30E94AD1B8AED90E0D6
:1016C0000E94F31A81E060E00E940F1B18A218C06C
:1016D0000E949F0E89A389A18F3FD1F388A1282F53
:1016E00030E0CE018296FC01E20FF31F89A18083D6
:1016F00089A1882F90E00E948A1B88A18F5F88A310
:1017000088A1843028F318A219C088A1282F30E0BE
:10171000CE018296FC01E20FF31F208188A1882F61
:1017200090E0FC01E05CFD4F8081281711F01F8ED6
:1017300008C081E08F8F88A18F5F88A388A1843043
:1017400020F38F8D882309F48CCF1E8E87C08E8D59
:10175000882F90E0FC01EE5EFD4F20818E8D882F5A
:1017600090E0FC01E05CFD4F9081822F692F0E9488
:10177000630E80E090E0A0EAB1E4898F9A8FAB8F8E
:10178000BC8F698D7A8D8B8D9C8D20E030E04AEF87
:1017900054E40E941F02DC01CB018D8B9E8BAF8B2A
:1017A000B88F6D897E898F89988D20E030E040E880
:1017B0005FE30E94250488232CF481E090E09C8B59
:1017C0008B8B3FC06D897E898F89988D20E03FEF9C
:1017D0004FE757E40E94C50318164CF5698D7A8DC2
:1017E0008B8D9C8D20E030E040E251E40E941F028E
:1017F000DC01CB01BC01CD010E944900DC01CB0121
:101800009C8B8B8B0FC088EC90E09A8B898B89899D
:101810009A890197F1F79A8B898B8B899C8901971B
:101820009C8B8B8B8B899C89009769F714C06D8981
:101830007E898F89988D0E944900DC01CB019C8BA9
:101840008B8B8B899C89988B8F878F859889019743
:10185000F1F7988B8F878E8D8F5F8E8F8E8D843072
:1018600008F475CF0E94AD1B1D8E91C08D8D882F01
:1018700090E0FC01EE5EFD4F40818D8D882F90E061
:101880009C01225E3D4F842FB9010E947C0E8D8DFC
:10189000882F90E0FC01E25EFD4F8081882F90E070
:1018A0000E948A1B80E090E0A8E4B3E48B879C87C9
:1018B000AD87BE876B857C858D859E8520E030E079
:1018C0004AEF54E40E941F02DC01CB018F8398870A
:1018D000A987BA876F81788589859A8520E030E06D
:1018E00040E85FE30E94250488232CF481E090E027
:1018F0009E838D833FC06F81788589859A8520E09E
:101900003FEF4FE757E40E94C50318164CF56B856F
:101910007C858D859E8520E030E040E251E40E9488
:101920001F02DC01CB01BC01CD010E944900DC019A
:10193000CB019E838D830FC088EC90E09C838B83CA
:101940008B819C810197F1F79C838B838D819E8194
:1019500001979E838D838D819E81009769F714C0C6
:101960006F81788589859A850E944900DC01CB01C9
:101970009E838D838D819E819A83898389819A81BB
:101980000197F1F79A8389838D8D8F5F8D8F8D8D70
:10199000843008F46BCFA5960FB6F894DEBF0FBE67
:1019A000CDBFCF91DF910895DF93CF9300D0CDB716
:1019B000DEB78FEF8A8319820E94AD1B8BEE90E019
:1019C0000E94F31A81E060E00E940F1B0E949F0EAC
:1019D0008A838A818F3FD1F38981882F90E0FC012F
:1019E000E05CFD4F8A8180838A81882F90E00E948D
:1019F0008A1B8981882F90E0FC01EE5EFD4F80817B
:101A00006A810E94630E89818F5F89838981843016
:101A1000E8F20F900F90CF91DF910895DF93CF936D
:101A2000CDB7DEB76B970FB6F894DEBF0FBECDBF54
:101A30008FEF8B8B1A8A198A188A81E08F871C8A0C
:101A40001D8A1E8A1F8A188E198E1A8E1B8E8889EF
:101A5000882F90E0FC01EE5EFD4F40818889882F41
:101A600090E09E01285E3F4F280F391F842FB90157
:101A70000E947C0E80E090E0A0E7B1E48B879C8719
:101A8000AD87BE876B857C858D859E8520E030E0A7
:101A90004AEF54E40E941F02DC01CB018F83988738
:101AA000A987BA876F81788589859A8520E030E09B
:101AB00040E85FE30E94250488232CF481E090E055
:101AC0009E838D833FC06F81788589859A8520E0CC
:101AD0003FEF4FE757E40E94C50318164CF56B859E
:101AE0007C858D859E8520E030E040E251E40E94B7
:101AF0001F02DC01CB01BC01CD010E944900DC01C9
:101B0000CB019E838D830FC088EC90E09C838B83F8
:101B10008B819C810197F1F79C838B838D819E81C2
:101B200001979E838D838D819E81009769F714C0F4
:101B30006F81788589859A850E944900DC01CB01F7
:101B40009E838D838D819E819A83898389819A81E9
:101B50000197F1F79A83898388898F5F888B8889B9
:101B6000843008F474CF0E94AD1B89EC90E00E9491
:101B7000F31A81E060E00E940F1B1A8A89898F5F47
:101B8000898B0E949F0E8B8B8B898F3FD1F38A8923
:101B9000282F30E0CE014496FC01E20FF31F8B8921
:101BA00080838B89882F90E00E948A1B8A898F5FAF
:101BB0008A8B8A89843028F381E08F871A8A19C03A
:101BC0008A89282F30E0CE014496FC01E20FF31FF2
:101BD00040818A89282F30E0CE014896FC01E20F2F
:101BE000F31F8081481711F01F8606C08A898F5F16
:101BF0008A8B8A89843020F38989833020F48F8509
:101C0000882309F4B0CF8F856B960FB6F894DEBFAA
:101C10000FBECDBFCF91DF910895DF93CF930F9289
:101C2000CDB7DEB78FEF89830E94AD1B8BEF90E0BD
:101C30000E94F31A8CEC0E94F71C82E00E9433127F
:101C40000E94611E882341F00E946E1E809346020E
:101C5000809146020E94F71C0E949F0E8983898111
:101C6000833271F780E00E9433120F90CF91DF91A1
:101C70000895DF93CF93CDB7DEB786E00E941312AD
:101C8000809145028F5F80934502809145028436A2
:101C900049F40E94E31B80934602809146020E9411
:101CA000F71C0EC080914502883751F4109245020E
:101CB0000E94B71B80934602809146020E94F71C47
:101CC000CF91DF910895DF93CF9300D0CDB7DEB7EA
:101CD00089836A830E94740F80EA0E94950F89812C
:101CE0000E94950F8A810E94950F0E94E10F0F902C
:101CF0000F90CF91DF910895DF93CF9300D00F9293
:101D0000CDB7DEB789837B836A830E94740F80EA34
:101D10000E94950F89810E94950F0E94740F81EA9D
:101D20000E94950F0E94BD0FEA81FB8180830E9473
:101D3000E10F0F900F900F90CF91DF910895DF93F7
:101D4000CF93CDB7DEB7A2970FB6F894DEBF0FBE24
:101D5000CDBF8FEF8C831B821A8281E08D83198225
:101D600087E08E8386E08F8385E0888784E089879B
:101D700084E08A8785E08B8786E08C8787E08D8783
:101D8000CE010E969F8F8E8FEFE2F2E0F9A3E8A3CB
:101D9000F0E1FAA3E8A1F9A1008088A199A1019638
:101DA00099A388A3EE8DFF8D00828E8D9F8D019665
:101DB0009F8F8E8F9AA191509AA3EAA1EE2351F79B
:101DC0001B826BC08B81282F30E0CE010696FC0170
:101DD000E20FF31F908181E0692F40E00E949F1F76
:101DE0001A8243C08A81282F30E0CE010A96FC0176
:101DF000E20FF31F90819E012B5F3F4F84E0692F1C
:101E0000A9010E94F8208D81882361F511C08A8183
:101E1000282F30E0CE010A96FC01E20FF31F9081DB
:101E20009E012B5F3F4F84E0692FA9010E94F8209B
:101E30008D81882361F38A81282F30E08B81482FA0
:101E400050E0220F331F220F331FCE010196820F65
:101E5000931F840F951FFC013D9680818C8381E048
:101E6000898307C08A818F5F8A838A81843008F4DE
:101E7000B9CF8B81282F30E0CE010696FC01E20F0E
:101E8000F31F908181E0692F41E00E949F1F8981AB
:101E9000882339F48B818F5F8B838B81843008F4A6
:101EA00091CF8C81A2960FB6F894DEBF0FBECDBF46
:101EB000CF91DF910895DF93CF93CDB7DEB7E2E204
:101EC000F0E082E08083E1E2F0E01082E0E2F0E026
:101ED00082E08083A6E5B0E0E6E5F0E08081846002
:101EE0008C93CF91DF910895DF93CF93CDB7DEB779
:101EF000A6E5B0E0E6E5F0E0808180628C93A6E59F
:101F0000B0E0E6E5F0E0808180688C93A6E5B0E083
:101F1000E6E5F0E0808184608C93E6E5F0E0808186
:101F20008823DCF7CF91DF910895DF93CF930F9251
:101F3000CDB7DEB78983E3E2F0E089818083A6E54F
:101F4000B0E0E6E5F0E080818F7D8C93A6E5B0E01F
:101F5000E6E5F0E0808180688C93A6E5B0E0E6E5F8
:101F6000F0E0808184608C93E6E5F0E08081882356
:101F7000DCF70F90CF91DF910895DF93CF93CDB72A
:101F8000DEB7A6E5B0E0E6E5F0E080818F7D8C93DA
:101F9000A6E5B0E0E6E5F0E0808180688C93A6E5F8
:101FA000B0E0E6E5F0E0808184608C93E6E5F0E067
:101FB00080818823DCF7E3E2F0E08081CF91DF913C
:101FC0000895DF93CF93CDB7DEB7A6E5B0E0E6E5A1
:101FD000F0E0808180618C93A6E5B0E0E6E5F0E07A
:101FE000808180688C93A6E5B0E0E6E5F0E0808132
:101FF00084608C93CF91DF910895DF93CF93CDB719
:10200000DEB7E1E2F0E08081887FCF91DF91089533
:10201000DF93CF9300D000D0CDB7DEB79A8389830A
:10202000A2E5B0E0E981FA8182818C93E981FA81AD
:1020300080818823B1F4A3E5B0E0E3E5F0E080819E
:102040008F7B8C93A3E5B0E0E3E5F0E08081877FB0
:102050008C93A9E5B0E0E9E5F0E0808181608C93A4
:10206000C7C0E981FA818081823009F06CC0A3E5A4
:10207000B0E0E3E5F0E080818F7B8C93A3E5B0E0F6
:10208000E3E5F0E0808188608C93A9E5B0E0E9E5C4
:10209000F0E0808182608C93ACE5B0E0E981FA8168
:1020A00083818C93E981FA818481882379F4A3E583
:1020B000B0E0E3E5F0E080818F7E8C93A3E5B0E0B3
:1020C000E3E5F0E080818F7D8C9392C0E981FA8115
:1020D0008481813079F4A3E5B0E0E3E5F0E080812C
:1020E00080618C93A3E5B0E0E3E5F0E080818F7D33
:1020F0008C937EC0E981FA818481823079F4A3E5F2
:10210000B0E0E3E5F0E080818F7E8C93A3E5B0E062
:10211000E3E5F0E0808180628C936AC0E981FA8116
:102120008481833009F064C0A3E5B0E0E3E5F0E02A
:10213000808180618C93A3E5B0E0E3E5F0E08081ED
:1021400080628C9355C0E981FA818081833009F0E7
:102150004FC0A3E5B0E0E3E5F0E0808180648C93BC
:10216000A3E5B0E0E3E5F0E0808188608C93ACE526
:10217000B0E0E981FA8183818C93E981FA818581DC
:10218000882379F4A3E5B0E0E3E5F0E080818F7E79
:102190008C93A3E5B0E0E3E5F0E080818F7D8C9344
:1021A00027C0E981FA818581823079F4A3E5B0E026
:1021B000E3E5F0E080818F7E8C93A3E5B0E0E3E57A
:1021C000F0E0808180628C9313C0E981FA8185817F
:1021D000833071F4A3E5B0E0E3E5F0E08081806155
:1021E0008C93A3E5B0E0E3E5F0E0808180628C931E
:1021F000E981FA818181282F30E03C832B838B8118
:102200009C818330910509F470C02B813C8124307E
:10221000310584F48B819C8181309105D1F12B8132
:102220003C81223031050CF04AC08B819C810097A3
:10223000D1F0C8C02B813C812530310509F481C023
:102240008B819C81853091050CF465C02B813C818C
:102250002630310509F48BC08B819C818730910534
:1022600009F49BC0AFC0A3E5B0E0E3E5F0E08081F6
:102270008E7F8C93A3E5B0E0E3E5F0E080818D7F75
:102280008C93A3E5B0E0E3E5F0E080818B7F8C9355
:1022900099C0A3E5B0E0E3E5F0E0808181608C9334
:1022A000A3E5B0E0E3E5F0E080818D7F8C93A3E5CA
:1022B000B0E0E3E5F0E080818B7F8C9383C0A3E501
:1022C000B0E0E3E5F0E080818E7F8C93A3E5B0E0A1
:1022D000E3E5F0E0808182608C93A3E5B0E0E3E584
:1022E000F0E080818B7F8C936DC0A3E5B0E0E3E5E7
:1022F000F0E0808181608C93A3E5B0E0E3E5F0E05D
:10230000808182608C93A3E5B0E0E3E5F0E080811A
:102310008B7F8C9357C0A3E5B0E0E3E5F0E08081CC
:102320008E7F8C93A3E5B0E0E3E5F0E080818D7FC4
:102330008C93A3E5B0E0E3E5F0E0808184608C93CA
:1023400041C0A3E5B0E0E3E5F0E0808181608C93DB
:10235000A3E5B0E0E3E5F0E080818D7F8C93A3E519
:10236000B0E0E3E5F0E0808184608C932BC0A3E5CE
:10237000B0E0E3E5F0E080818E7F8C93A3E5B0E0F0
:10238000E3E5F0E0808182608C93A3E5B0E0E3E5D3
:10239000F0E0808184608C9315C0A3E5B0E0E3E5B4
:1023A000F0E0808181608C93A3E5B0E0E3E5F0E0AC
:1023B000808182608C93A3E5B0E0E3E5F0E080816A
:1023C00084608C930F900F900F900F90CF91DF91BE
:1023D0000895DF93CF930F92CDB7DEB78983ECE5F5
:1023E000F0E0898180830F90CF91DF910895DF9392
:1023F000CF93CDB7DEB7A3E5B0E0E3E5F0E08081B1
:102400008E7F8C93A3E5B0E0E3E5F0E080818D7FE3
:102410008C93A3E5B0E0E3E5F0E080818B7F8C93C3
:10242000CF91DF910895DF93CF930F92CDB7DEB7B1
:102430008983E2E5F0E0898180830F90CF91DF917D
:102440000895DF93CF9300D0CDB7DEB79A83898309
:1024500089819A8190934A02809349020F900F904C
:10246000CF91DF910895DF93CF930F92CDB7DEB771
:102470008983A3E5B0E0E3E5F0E08081982F987FC1
:1024800089818770892B8C930F90CF91DF9108956C
:102490001F920F920FB60F9211242F933F934F93D9
:1024A0005F936F937F938F939F93AF93BF93EF93BC
:1024B000FF93DF93CF93CDB7DEB780914902909120
:1024C0004A02009729F0E0914902F0914A020995E9
:1024D000CF91DF91FF91EF91BF91AF919F918F913C
:1024E0007F916F915F914F913F912F910F900FBE10
:1024F0000F901F9018951F920F920FB60F921124F4
:102500002F933F934F935F936F937F938F939F93FB
:10251000AF93BF93EF93FF93DF93CF93CDB7DEB726
:102520008091490290914A02009729F0E091490276
:10253000F0914A020995CF91DF91FF91EF91BF9100
:10254000AF919F918F917F916F915F914F913F914B
:102550002F910F900FBE0F901F901895DF93CF9380
:10256000CDB7DEB729970FB6F894DEBF0FBECDBF4B
:1025700089836A834B838981282F30E039872887B4
:102580008885998582309105D1F128853985233058
:1025900031055CF4888599850097A1F028853985F7
:1025A0002130310509F448C09DC088859985833064
:1025B000910509F45EC0288539852430310509F478
:1025C00075C090C0AFE4B0E0EFE4F0E080818E7FB2
:1025D0008C93AFE4B0E0EFE4F0E080818D7F8C93EA
:1025E000AEE4B0E0EEE4F0E08081877F8C93AEE46F
:1025F000B0E0EEE4F0E080818F7E8C9373C0AFE4B6
:10260000B0E0EFE4F0E080818E7F8C93AFE4B0E047
:10261000EFE4F0E080818D7F8C93AEE4B0E0EEE4F7
:10262000F0E0808188608C93AEE4B0E0EEE4F0E00E
:10263000808180618C9356C0AFE4B0E0EFE4F0E0BD
:1026400080818E7F8C93AFE4B0E0EFE4F0E0808196
:102650008D7F8C93AEE4B0E0EEE4F0E080818860A2
:102660008C93AEE4B0E0EEE4F0E080818F7E8C935A
:1026700039C0AFE4B0E0EFE4F0E080818E7F8C936E
:10268000AFE4B0E0EFE4F0E0808182608C93AEE4F0
:10269000B0E0EEE4F0E0808188608C93AEE4B0E0DE
:1026A000EEE4F0E0808180618C931CC0AFE4B0E088
:1026B000EFE4F0E0808181608C93AFE4B0E0EFE480
:1026C000F0E0808182608C93AEE4B0E0EEE4F0E074
:1026D000808188608C93AEE4B0E0EEE4F0E080812D
:1026E00080618C938A81282F30E03F832E838E81F6
:1026F0009F818230910509F45CC02E813F81233097
:10270000310554F48E819F810097C9F02E813F815D
:102710002130310589F1C0C08E819F8184309105BF
:1027200009F481C02E813F81243031050CF45EC054
:102730008E819F818530910509F492C0ADC0AFE4D0
:10274000B0E0EFE4F0E080818F7B8C93AFE4B0E009
:10275000EFE4F0E080818F7E8C93AFE4B0E0EFE4B3
:10276000F0E080818F778C93AFE4B0E0EFE4F0E0AD
:1027700080818F7D8C9390C0AFE4B0E0EFE4F0E017
:10278000808180648C93AFE4B0E0EFE4F0E080817E
:1027900080618C93AFE4B0E0EFE4F0E080818F776C
:1027A0008C93AFE4B0E0EFE4F0E080818F7D8C9318
:1027B00073C0AFE4B0E0EFE4F0E0808180648C931C
:1027C000AFE4B0E0EFE4F0E0808180618C93AFE4AF
:1027D000B0E0EFE4F0E0808180688C93AFE4B0E09B
:1027E000EFE4F0E0808180628C9356C0AFE4B0E00B
:1027F000EFE4F0E080818F7B8C93AFE4B0E0EFE416
:10280000F0E080818F7E8C93AFE4B0E0EFE4F0E005
:10281000808180688C93AFE4B0E0EFE4F0E08081E9
:1028200080628C9339C0AFE4B0E0EFE4F0E08081E7
:102830008F7B8C93AFE4B0E0EFE4F0E080818F7E9B
:102840008C93AFE4B0E0EFE4F0E0808180688C939B
:10285000AFE4B0E0EFE4F0E0808180628C931CC0D4
:10286000AFE4B0E0EFE4F0E0808180648C93AFE40B
:10287000B0E0EFE4F0E0808180618C93AFE4B0E001
:10288000EFE4F0E0808180688C93AFE4B0E0EFE4A7
:10289000F0E0808180628C938B81282F30E03D8333
:1028A0002C838C819D818130910501F12C813D81AA
:1028B0002230310589F18C819D81009709F041C05A
:1028C000AEE4B0E0EEE4F0E080818E7F8C93AEE485
:1028D000B0E0EEE4F0E0808182608C93AEE4B0E0A2
:1028E000EEE4F0E080818B7F8C932BC0AEE4B0E00F
:1028F000EEE4F0E0808181608C93AEE4B0E0EEE441
:10290000F0E0808182608C93AEE4B0E0EEE4F0E031
:1029100080818B7F8C9315C0AEE4B0E0EEE4F0E0F4
:1029200080818E7F8C93AEE4B0E0EEE4F0E08081B5
:102930008D7F8C93AEE4B0E0EEE4F0E080818460C3
:102940008C9329960FB6F894DEBF0FBECDBFCF9102
:10295000DF910895DF93CF9300D000D00F92CDB7D1
:10296000DEB79A8389836B838B81282F30E03D8388
:102970002C838C819D818230910521F12C813D81B8
:102980002330310534F48C819D818130910509F12A
:1029900026C02C813D812330310531F08C819D8111
:1029A0008430910541F01BC0E6E4F0E089819A8112
:1029B0009183808314C0EAE4F0E089819A81918355
:1029C00080830DC0E6E4F0E089819A819183808361
:1029D00006C0EAE4F0E089819A81918380830F90B8
:1029E0000F900F900F900F90CF91DF910895DF938C
:1029F000CF9300D0CDB7DEB79A838983EAE4F0E0C5
:102A000089819A81918380830F900F90CF91DF917C
:102A10000895DF93CF9300D00F92CDB7DEB78983AF
:102A20008981282F30E03B832A838A819B8100970C
:102A300031F02A813B812130310549F00FC0AEE4ED
:102A4000B0E0EEE4F0E0808180648C9307C0AEE4F7
:102A5000B0E0EEE4F0E080818F7B8C930F900F90DC
:102A60000F90CF91DF910895DF93CF93CDB7DEB76D
:102A7000A9E5B0E0E9E5F0E0808180628C93CF9138
:102A8000DF910895DF93CF93CDB7DEB7A9E5B0E02E
:102A9000E9E5F0E080818F7D8C93CF91DF910895FF
:102AA000DF93CF93CDB7DEB7E6E4F0E0808191818C
:102AB000CF91DF910895DF93CF9300D0CDB7DEB7EC
:102AC0009A83898389819A819093480280934702EF
:102AD0000F900F90CF91DF910895DF93CF93CDB7F3
:102AE000DEB7ECE4F0E011821082E6E4F0E011825F
:102AF0001082CF91DF9108951F920F920FB60F921F
:102B000011242F933F934F935F936F937F938F93F2
:102B10009F93AF93BF93EF93FF93DF93CF93CDB783
:102B2000DEB78091470290914802009729F0E0912A
:102B30004702F09148020995CF91DF91FF91EF9103
:102B4000BF91AF919F918F917F916F915F914F91C5
:102B50003F912F910F900FBE0F901F901895DF930C
:102B6000CF9300D0CDB7DEB79A838983A7E2B0E0D8
:102B7000E981FA8181818295880F880F807C8C930E
:102B8000A6E2B0E0E981FA81828180688C93A0E5B9
:102B9000B0E0E0E5F0E08081282FE981FA818081D2
:102BA000882F90E0880F991F82959295907F9827A3
:102BB000807F9827822B8C930F900F90CF91DF917D
:102BC0000895DF93CF930F92CDB7DEB78983A7E245
:102BD000B0E0E7E2F0E08081982F907E89818770F5
:102BE000892B8C93A6E2B0E0E6E2F0E0808180647D
:102BF0008C93E6E2F0E08081882F90E08071907005
:102C00000097B9F3A6E2B0E0E6E2F0E080818061EF
:102C10008C93E4E2F0E0808191810F90CF91DF917D
:102C20000895DF93CF93CDB7DEB72E970FB6F89404
:102C3000DEBF0FBECDBF80E090E0A0E2B2E48B87A4
:102C40009C87AD87BE876B857C858D859E8520E0C2
:102C500030E04AEF54E40E941F02DC01CB018F8375
:102C60009887A987BA876F81788589859A8520E0BA
:102C700030E040E85FE30E94250488232CF481E0E3
:102C800090E09E838D833FC06F81788589859A858A
:102C900020E03FEF4FE757E40E94C50318164CF5BC
:102CA0006B857C858D859E8520E030E040E251E497
:102CB0000E941F02DC01CB01BC01CD010E94490032
:102CC000DC01CB019E838D830FC088EC90E09C8358
:102CD0008B838B819C810197F1F79C838B838D8102
:102CE0009E8101979E838D838D819E81009769F7D8
:102CF00014C06F81788589859A850E944900DC011E
:102D0000CB019E838D838D819E819A838983898166
:102D10009A810197F1F79A83898383E30E94A5162C
:102D200082E30E94A5168CE20E94A5168CE00E9408
:102D3000A51681E00E94A5162E960FB6F894DEBF68
:102D40000FBECDBFCF91DF910895DF93CF93CDB765
:102D5000DEB76D970FB6F894DEBF0FBECDBF8D8F77
:102D600083E062E040E00E949F1F8D8D82958F700E
:102D7000982F917083E064E0492F0E949F1F8D8DF2
:102D8000829586958770982F917083E065E0492F32
:102D90000E949F1F8D8D8295869586958370982FB2
:102DA000917083E066E0492F0E949F1F8D8D982FC0
:102DB000991F9927991F83E067E0492F0E949F1F61
:102DC00083E063E041E00E949F1F80E090E0A0E08C
:102DD000B0E4898F9A8FAB8FBC8F698D7A8D8B8D84
:102DE0009C8D20E030E04AEF54E40E941F02DC0199
:102DF000CB018D8B9E8BAF8BB88F6D897E898F8930
:102E0000988D20E030E040E85FE30E9425048823AD
:102E10002CF481E090E09C8B8B8B3FC06D897E8988
:102E20008F89988D20E03FEF4FE757E40E94C5035C
:102E300018164CF5698D7A8D8B8D9C8D20E030E0D5
:102E400040E251E40E941F02DC01CB01BC01CD0134
:102E50000E944900DC01CB019C8B8B8B0FC088EC5E
:102E600090E09A8B898B89899A890197F1F79A8BDF
:102E7000898B8B899C8901979C8B8B8B8B899C89F7
:102E8000009769F714C06D897E898F89988D0E949B
:102E90004900DC01CB019C8B8B8B8B899C89988BA7
:102EA0008F878F8598890197F1F7988B8F8783E0BB
:102EB00063E040E00E949F1F8D8D982F917083E00A
:102EC00064E0492F0E949F1F8D8D8695982F9170E9
:102ED00083E065E0492F0E949F1F8D8D8695869522
:102EE000982F917083E066E0492F0E949F1F8D8D7F
:102EF000869586958695982F917083E067E0492F97
:102F00000E949F1F83E063E041E00E949F1F80E0DA
:102F100090E0A0E0B0E48B879C87AD87BE876B858F
:102F20007C858D859E8520E030E04AEF54E40E9448
:102F30001F02DC01CB018F839887A987BA876F8135
:102F4000788589859A8520E030E040E85FE30E943B
:102F5000250488232CF481E090E09E838D833FC07C
:102F60006F81788589859A8520E03FEF4FE757E4A8
:102F70000E94C50318164CF56B857C858D859E8552
:102F800020E030E040E251E40E941F02DC01CB016E
:102F9000BC01CD010E944900DC01CB019E838D83E1
:102FA0000FC088EC90E09C838B838B819C81019780
:102FB000F1F79C838B838D819E8101979E838D8306
:102FC0008D819E81009769F714C06F81788589850E
:102FD0009A850E944900DC01CB019E838D838D81FF
:102FE0009E819A83898389819A810197F1F79A83D7
:102FF000898383E063E040E00E949F1F6D960FB6D7
:10300000F894DEBF0FBECDBFCF91DF9108950F932F
:103010001F93DF93CF93CDB7DEB7C754D0400FB621
:10302000F894DEBF0FBECDBFFE01E95BFF4F80838A
:1030300083E062E041E00E949F1FFE01ED5BFF4FD5
:1030400080E090E0A0E8BFE380839183A283B38314
:103050008E01015C1F4FFE01ED5BFF4F60817181AE
:103060008281938120E030E04AEF54E40E941F0205
:10307000DC01CB01F80180839183A283B383FE013D
:10308000FF96608171818281938120E030E040E889
:103090005FE30E94250488232CF481E090E09EAF3A
:1030A0008DAF46C0FE01FF96608171818281938160
:1030B00020E03FEF4FE757E40E94C503181664F580
:1030C000FE01ED5BFF4F608171818281938120E081
:1030D00030E040E251E40E941F02DC01CB01BC0160
:1030E000CD010E944900DC01CB019EAF8DAF0FC026
:1030F00088EC90E09CAF8BAF8BAD9CAD0197F1F766
:103100009CAF8BAF8DAD9EAD01979EAF8DAF8DAD5A
:103110009EAD009769F716C0FE01FF966081718130
:10312000828193810E944900DC01CB019EAF8DAF6B
:103130008DAD9EAD9AAF89AF89AD9AAD0197F1F78C
:103140009AAF89AFFE01E95BFF4F808182958F7056
:10315000982F917083E064E0492F0E949F1FFE0129
:10316000E95BFF4F8081829586958770982F9170DB
:1031700083E065E0492F0E949F1FFE01E95BFF4F3E
:1031800080818295869586958370982F917083E0D3
:1031900066E0492F0E949F1FFE01E95BFF4F80817F
:1031A000982F991F9927991F83E067E0492F0E9464
:1031B0009F1F80E090E0A0E8BFE38DAB9EABAFAB7C
:1031C000B8AF6DA97EA98FA998AD20E030E04AEF95
:1031D00054E40E941F02DC01CB0189AB9AABABAB7C
:1031E000BCAB69A97AA98BA99CA920E030E040E892
:1031F0005FE30E94250488232CF481E090E098ABE3
:103200008FA73FC069A97AA98BA99CA920E03FEFAD
:103210004FE757E40E94C50318164CF56DA97EA927
:103220008FA998AD20E030E040E251E40E941F02F7
:10323000DC01CB01BC01CD010E944900DC01CB01C6
:1032400098AB8FA70FC088EC90E09EA78DA78DA5A7
:103250009EA50197F1F79EA78DA78FA598A9019725
:1032600098AB8FA78FA598A9009769F714C069A993
:103270007AA98BA99CA90E944900DC01CB0198ABDB
:103280008FA78FA598A99CA78BA78BA59CA5019715
:10329000F1F79CA78BA783E063E041E00E949F1FAA
:1032A00080E090E0A0E0B0E48FA398A7A9A7BAA718
:1032B0006FA178A589A59AA520E030E04AEF54E4F3
:1032C0000E941F02DC01CB018BA39CA3ADA3BEA374
:1032D0006BA17CA18DA19EA120E030E040E85FE3DE
:1032E0000E94250488232CF481E090E09AA389A30E
:1032F0003FC06BA17CA18DA19EA120E03FEF4FE7D5
:1033000057E40E94C50318164CF56FA178A589A54E
:103310009AA520E030E040E251E40E941F02DC0167
:10332000CB01BC01CD010E944900DC01CB019AA375
:1033300089A30FC088EC90E098A38F8F8F8D98A100
:103340000197F1F798A38F8F89A19AA101979AA36A
:1033500089A389A19AA1009769F714C06BA17CA1E8
:103360008DA19EA10E944900DC01CB019AA389A3F3
:1033700089A19AA19E8F8D8F8D8D9E8D0197F1F7DA
:103380009E8F8D8F83E063E040E00E949F1FFE01CF
:10339000E95BFF4F8081982F917083E064E0492FB3
:1033A0000E949F1FFE01E95BFF4F80818695982F49
:1033B000917083E065E0492F0E949F1FFE01E95B49
:1033C000FF4F808186958695982F917083E066E007
:1033D000492F0E949F1FFE01E95BFF4F8081869568
:1033E00086958695982F917083E067E0492F0E941B
:1033F0009F1F80E090E0A0E8BFE3898F9A8FAB8F9A
:10340000BC8F698D7A8D8B8D9C8D20E030E04AEFEA
:1034100054E40E941F02DC01CB018D8B9E8BAF8B8D
:10342000B88F6D897E898F89988D20E030E040E8E3
:103430005FE30E94250488232CF481E090E09C8BBC
:103440008B8B3FC06D897E898F89988D20E03FEFFF
:103450004FE757E40E94C50318164CF5698D7A8D25
:103460008B8D9C8D20E030E040E251E40E941F02F1
:10347000DC01CB01BC01CD010E944900DC01CB0184
:103480009C8B8B8B0FC088EC90E09A8B898B898901
:103490009A890197F1F79A8B898B8B899C8901977F
:1034A0009C8B8B8B8B899C89009769F714C06D89E5
:1034B0007E898F89988D0E944900DC01CB019C8B0D
:1034C0008B8B8B899C89988B8F878F8598890197A7
:1034D000F1F7988B8F8783E063E041E00E949F1FA4
:1034E00080E090E0A0E0B0E48B879C87AD87BE874A
:1034F0006B857C858D859E8520E030E04AEF54E425
:103500000E941F02DC01CB018F839887A987BA87AD
:103510006F81788589859A8520E030E040E85FE317
:103520000E94250488232CF481E090E09E838D8303
:103530003FC06F81788589859A8520E03FEF4FE70E
:1035400057E40E94C50318164CF56B857C858D8564
:103550009E8520E030E040E251E40E941F02DC0141
:10356000CB01BC01CD010E944900DC01CB019E834F
:103570008D830FC088EC90E09C838B838B819C8132
:103580000197F1F79C838B838D819E8101979E83A8
:103590008D838D819E81009769F714C06F81788536
:1035A00089859A850E944900DC01CB019E838D8329
:1035B0008D819E819A83898389819A810197F1F710
:1035C0009A83898383E063E040E00E949F1FC95B88
:1035D000DF4F0FB6F894DEBF0FBECDBFCF91DF91A6
:1035E0001F910F910895DF93CF9300D0CDB7DEB731
:1035F0009A8389830AC0E981FA8180810E94071831
:1036000089819A8101969A838983E981FA818081EF
:10361000882389F70F900F90CF91DF910895DF9362
:10362000CF9300D000D00F92CDB7DEB78A836B83E3
:103630008A81282F30E03D832C838C819D818130CD
:103640009105C1F02C813D81223031052CF48C8113
:103650009D81009761F019C02C813D812230310598
:1036600069F08C819D818330910561F00EC08B8162
:1036700089830BC08B81805C898307C08B81805FCD
:10368000898303C08B81805B8983898180680E94E4
:10369000A5160F900F900F900F900F90CF91DF9184
:1036A0000895DF93CF9300D000D0CDB7DEB78983E4
:1036B0006A835C834B8389816A810E940F1B8B81A3
:1036C0009C810E94F31A0F900F900F900F90CF9152
:1036D000DF910895DF93CF9300D00F92CDB7DEB77F
:1036E0009A8389836B838B81863021F484E10E94E5
:1036F000A51606C08B81853019F480E10E94A516BD
:1037000089819A810E94F31A0F900F900F90CF91A8
:10371000DF910895DF93CF93CDB7DEB762970FB6F1
:10372000F894DEBF0FBECDBF9A8B898B89899A89A9
:103730009E012F5F3F4FB9014AE050E00E94712285
:10374000CE0101960E94F31A62960FB6F894DEBF7E
:103750000FBECDBFCF91DF910895DF93CF93CDB74B
:10376000DEB781E00E94A516CF91DF910895DF9327
:10377000CF9300D00F92CDB7DEB71B8281E00E94BD
:10378000E1159A83898389819A81CC01A0E0B0E018
:103790002FEF30E040E050E0BC01CD010E94F92164
:1037A000DC01CB01072E7AE0B695A7959795879512
:1037B0007A95D1F7702D8B838B810F900F900F909E
:1037C000CF91DF910895DF93CF9300D000D0CDB794
:1037D000DEB71C821B821A82198280E00E94E115EA
:1037E0009C838B838B819C81CC01A0E0B0E02EEE8A
:1037F00032E040E050E0BC01CD010E94F921DC0143
:10380000CB01BC01CD010E94A904DC01CB01BC01AC
:10381000CD0120E030ED4FEB54E40E941903DC01B0
:10382000CB01BC01CD010E944900DC01CB018A83A0
:103830008A81282F30E082E390E0AC01249FC00110
:10384000259F900D349F900D1124AA2797FDA095D8
:10385000BA2F2FEF30E040E050E0BC01CD010E94D4
:103860001822DA01C90189838A810F900F900F9085
:103870000F90CF91DF910895DF93CF9300D0CDB714
:10388000DEB79A83898382E064E041E00E949D1E56
:1038900082E065E041E00E949D1E82E067E041E039
:1038A0000E949D1E82E066E040E00E949D1EEDE2C7
:1038B000F0E080E58083ADE2B0E0EDE2F0E0808111
:1038C00080628C93ADE2B0E0EDE2F0E08081382FD1
:1038D000E981FA818081882F90E0880F991F880FF5
:1038E000991F880F991F282FE981FA818181882FDC
:1038F00090E0880F991F880F991F822B832B8C9340
:10390000ADE2B0E0EDE2F0E08081982FE981FA814C
:1039100082818370892B8C93AEE2B0E0EEE2F0E01E
:103920008081282FE981FA818281882F90E084703C
:1039300090709595879595958795822B8C930F9090
:103940000F90CF91DF910895DF93CF9300D0CDB743
:10395000DEB79A83898382E066E041E00E949D1E83
:1039600082E064E040E00E949D1E82E065E040E06D
:103970000E949D1E82E067E040E00E949D1EADE235
:10398000B0E0EDE2F0E0808180648C93ADE2B0E0E5
:10399000EDE2F0E0808180628C93ADE2B0E0EDE298
:1039A000F0E08081382FE981FA818081882F90E0D2
:1039B000880F991F880F991F880F991F282FE98159
:1039C000FA818181882F90E0880F991F880F991FB5
:1039D000822B832B8C93AEE2B0E0EEE2F0E08081AC
:1039E0008E7F8C930F900F90CF91DF910895DF938E
:1039F000CF930F92CDB7DEB78983EFE2F0E08981F4
:103A00008083EEE2F0E080818823DCF7EFE2F0E0F3
:103A100080810F90CF91DF910895DF93CF9300D0F5
:103A20000F92CDB7DEB79B838A8319820BC0EA81E0
:103A3000FB8180810E94F71C89838A819B8101968A
:103A40009B838A83EA81FB818081882381F70F90A1
:103A50000F900F90CF91DF9108950F931F93DF93F5
:103A6000CF9300D00F92CDB7DEB79B838A838FEFC1
:103A7000898389818F5F89838981282F332727FD57
:103A800030958A819B818C01020F131F8FEF0E945A
:103A9000F71CF80180838981282F332727FD309573
:103AA0008A819B81FC01E20FF31F8081833209F739
:103AB0008981282F332727FD30958A819B81FC013E
:103AC000E20FF31F10820F900F900F90CF91DF91B4
:103AD0001F910F910895DF93CF9300D000D0CDB701
:103AE000DEB79C838B831A821982EBE2F0E082E0DE
:103AF0008083EAE2F0E088E18083AAE2B0E0EAE2D3
:103B0000F0E08081982FEB81FC8182818470892B89
:103B10008C93A0E4B0E0EB81FC818081882F90E061
:103B200082959295907F9827807F9827282F2068EC
:103B3000EB81FC818181882F90E0880F991F880F8D
:103B4000991F880F991F282BEB81FC818281882F78
:103B500090E083709070880F991F822B8C93EB817B
:103B6000FC8183819481A581B681880F991FAA1F4A
:103B7000BB1F880F991FAA1FBB1F880F991FAA1F61
:103B8000BB1F9C01AD0180E092E1AAE7B0E0BC015F
:103B9000CD010E941822DA01C90101979A83898315
:103BA000E9E2F0E089818083E0E4F0E089819A81B4
:103BB000892F992780830F900F900F900F90CF91AE
:103BC000DF910895DF93CF930F92CDB7DEB789834E
:103BD000EBE2F0E08081882F90E080729070009797
:103BE000B9F3ECE2F0E0898180830F90CF91DF910F
:103BF0000895DF93CF93CDB7DEB7EBE2F0E080819D
:103C00008823DCF7ECE2F0E08081CF91DF9108952A
:103C1000DF93CF9300D0CDB7DEB79A8389830AC0F4
:103C2000E981FA8180810E94E21D89819A81019651
:103C30009A838983E981FA818081882389F70F90AB
:103C40000F90CF91DF9108950F931F93DF93CF9340
:103C500000D00F92CDB7DEB79B838A838FEF898325
:103C600089818F5F89838981282F332727FD3095AC
:103C70008A819B818C01020F131F0E94F91DF8019C
:103C800080838981282F332727FD30958A819B8166
:103C9000FC01E20FF31F8081833211F78981282F05
:103CA000332727FD30958A819B81FC01E20FF31FAA
:103CB00010820F900F900F90CF91DF911F910F9175
:103CC0000895DF93CF93CDB7DEB7EBE2F0E08081CC
:103CD000881F8827881FCF91DF910895DF93CF93A6
:103CE000CDB7DEB7ECE2F0E08081CF91DF910895AF
:103CF000DF93CF93CDB7DEB7EAE3F0E080EF8083C8
:103D0000E7E3F0E080EB8083E4E3F0E08CEF808396
:103D1000E1E3F0E082E08083EBE3F0E080EF80839A
:103D2000E8E3F0E01082E5E3F0E01082E2E3F0E0A7
:103D300080EF8083CF91DF910895DF93CF93CDB74C
:103D4000DEB727970FB6F894DEBF0FBECDBF8983CD
:103D50006A834B838B81813009F070C08981282F61
:103D600030E03F832E838E819F818230910551F117
:103D70002E813F812330310534F48E819F81813043
:103D8000910561F0D3C02E813F812330310571F15F
:103D90008E819F8184309105E9F1C8C0AAE3B0E02B
:103DA000EAE3F0E08081482F8A81282F30E081E02B
:103DB00090E0022E02C0880F991F0A94E2F7842B2C
:103DC0008C93B4C0A7E3B0E0E7E3F0E08081482F34
:103DD0008A81282F30E081E090E0022E02C0880F17
:103DE000991F0A94E2F7842B8C93A0C0A4E3B0E05F
:103DF000E4E3F0E08081482F8A81282F30E081E0E1
:103E000090E0022E02C0880F991F0A94E2F7842BDB
:103E10008C938CC0A1E3B0E0E1E3F0E08081482F17
:103E20008A81282F30E081E090E0022E02C0880FC6
:103E3000991F0A94E2F7842B8C9378C08B81882396
:103E400009F074C08981282F30E03D832C838C8158
:103E50009D818230910561F12C813D8123303105B6
:103E600034F48C819D818130910569F05FC02C8193
:103E70003D812330310589F18C819D81843091050C
:103E800009F440C053C0AAE3B0E0EAE3F0E0808167
:103E9000482F8A81282F30E081E090E0022E02C076
:103EA000880F991F0A94E2F7809584238C933EC073
:103EB000A7E3B0E0E7E3F0E08081482F8A81282F74
:103EC00030E081E090E0022E02C0880F991F0A9432
:103ED000E2F7809584238C9329C0A4E3B0E0E4E367
:103EE000F0E08081482F8A81282F30E081E090E047
:103EF000022E02C0880F991F0A94E2F7809584234E
:103F00008C9314C0A1E3B0E0E1E3F0E08081482F9E
:103F10008A81282F30E081E090E0022E02C0880FD5
:103F2000991F0A94E2F7809584238C9327960FB605
:103F3000F894DEBF0FBECDBFCF91DF910895DF9320
:103F4000CF93CDB7DEB728970FB6F894DEBF0FBE7C
:103F5000CDBF8A836B834C8319828B81883018F0A4
:103F600081E08983F2C08C81813009F073C08A813D
:103F7000282F30E038872F838F81988582309105F4
:103F800051F12F8138852330310534F48F819885A4
:103F90008130910561F05BC02F8138852330310578
:103FA00071F18F81988584309105E9F150C0ABE3C0
:103FB000B0E0EBE3F0E08081482F8B81282F30E0E8
:103FC00081E090E0022E02C0880F991F0A94E2F768
:103FD000842B8C93BAC0A8E3B0E0E8E3F0E08081E2
:103FE000482F8B81282F30E081E090E0022E02C024
:103FF000880F991F0A94E2F7842B8C93A6C0A5E33F
:10400000B0E0E5E3F0E08081482F8B81282F30E09D
:1040100081E090E0022E02C0880F991F0A94E2F717
:10402000842B8C9392C0A2E3B0E0E2E3F0E08081C5
:10403000482F8B81282F30E081E090E0022E02C0D3
:10404000880F991F0A94E2F7842B8C937EC081E03D
:1040500089837BC08C81882309F077C08A81282FCF
:1040600030E03E832D838D819E818230910561F108
:104070002D813E812330310534F48D819E81813044
:10408000910569F060C02D813E812330310589F1B1
:104090008D819E818430910509F440C054C0ABE30A
:1040A000B0E0EBE3F0E08081482F8B81282F30E0F7
:1040B00081E090E0022E02C0880F991F0A94E2F777
:1040C000809584238C9341C0A8E3B0E0E8E3F0E05E
:1040D0008081482F8B81282F30E081E090E0022EF4
:1040E00002C0880F991F0A94E2F7809584238C936D
:1040F0002CC0A5E3B0E0E5E3F0E08081482F8B81A0
:10410000282F30E081E090E0022E02C0880F991F36
:104110000A94E2F7809584238C9317C0A2E3B0E061
:10412000E2E3F0E08081482F8B81282F30E081E0AE
:1041300090E0022E02C0880F991F0A94E2F7809542
:1041400084238C9302C081E08983898128960FB6ED
:10415000F894DEBF0FBECDBFCF91DF910895DF93FE
:10416000CF9300D000D00F92CDB7DEB78A836B8398
:1041700019828A81282F30E03D832C838C819D8198
:1041800082309105D9F02C813D812330310534F402
:104190008C819D818130910561F01FC02C813D8112
:1041A0002330310581F08C819D818430910581F02F
:1041B00014C0EBE3F0E08B81808311C0E8E3F0E012
:1041C0008B8180830CC0E5E3F0E08B81808307C0A6
:1041D000E2E3F0E08B81808302C081E08983898102
:1041E0000F900F900F900F900F90CF91DF91089547
:1041F000DF93CF93CDB7DEB727970FB6F894DEBF26
:104200000FBECDBF8A836B835D834C8319828B8104
:10421000883018F081E0898373C08A81282F30E0CC
:104220003F832E834E815F814230510559F18E814B
:104230009F818330910534F42E813F8121303105F7
:1042400069F05CC04E815F814330510579F18E8108
:104250009F818430910509F43DC050C0E9E3F0E04E
:104260008081282F30E08B81882F90E0A90102C047
:10427000559547958A95E2F7CA018170EC81FD81D9
:1042800080833EC0E6E3F0E08081282F30E08B8120
:10429000882F90E0A90102C0559547958A95E2F7CD
:1042A000CA018170EC81FD8180832AC0E3E3F0E0E4
:1042B0008081282F30E08B81882F90E0A90102C0F7
:1042C000559547958A95E2F7CA018170EC81FD8189
:1042D000808316C0E0E3F0E08081282F30E08B81FE
:1042E000882F90E0A90102C0559547958A95E2F77D
:1042F000CA018170EC81FD81808302C082E08983E4
:10430000898127960FB6F894DEBF0FBECDBFCF913F
:10431000DF910895DF93CF9300D000D000D0CDB7C8
:10432000DEB78A837C836B8319828A81282F30E0F1
:104330003E832D838D819E8182309105E9F02D8110
:104340003E812330310534F48D819E818130910589
:1043500061F027C02D813E8123303105A1F08D8190
:104360009E8184309105B1F01CC0E9E3F0E08081CA
:10437000EB81FC81808317C0E6E3F0E08081EB8174
:10438000FC81808310C0E3E3F0E08081EB81FC815D
:10439000808309C0E0E3F0E08081EB81FC818083D1
:1043A00002C082E08983898126960FB6F894DEBF29
:1043B0000FBECDBFCF91DF910895DF93CF93CDB7DF
:1043C000DEB7AFE5B0E0EFE5F0E0808180688C9388
:1043D000CF91DF910895DF93CF93CDB7DEB7AFE5EF
:1043E000B0E0EFE5F0E080818F778C93CF91DF91A3
:1043F0000895629FD001739FF001829FE00DF11D2F
:10440000649FE00DF11D929FF00D839FF00D749F4E
:10441000F00D659FF00D9927729FB00DE11DF91FFA
:10442000639FB00DE11DF91FBD01CF011124089557
:10443000A1E21A2EAA1BBB1BFD010DC0AA1FBB1FA8
:10444000EE1FFF1FA217B307E407F50720F0A21B1A
:10445000B30BE40BF50B661F771F881F991F1A9487
:1044600069F760957095809590959B01AC01BD01B1
:10447000CF0108952F923F924F925F926F927F9259
:104480008F929F92AF92BF92CF92DF92EF92FF9264
:104490000F931F93CF93DF93CDB7DEB7CA1BDB0B10
:1044A0000FB6F894DEBF0FBECDBF09942A883988B5
:1044B00048885F846E847D848C849B84AA84B984BC
:1044C000C884DF80EE80FD800C811B81AA81B981C8
:1044D000CE0FD11D0FB6F894DEBF0FBECDBFED01DC
:1044E0000895FB019F01E8944230C4F04532B4F4D2
:1044F0004A3029F497FB1EF4909581959F4F642FC5
:1045000077270E94A222805D8A330CF0895D819317
:10451000CB010097A1F716F45DE251931082C90117
:104520000C949222DC01FC01672F71917723E1F753
:10453000329704C07C916D9370836291AE17BF0770
:10454000C8F30895AA1BBB1B51E107C0AA1FBB1FDC
:10455000A617B70710F0A61BB70B881F991F5A950F
:10456000A9F780959095BC01CD010895F894FFCFEF
:10457000312D4368616E6765207061737300322D61
:1045800041646420557365722020332D2E2E003433
:104590002D4F70656E2053797374656D00352D5005
:1045A000726576696F757300596F75206172652049
:1045B000426C6F636B65640057726F6E6720496E63
:1045C000707574002057656C636F6D6520536D6165
:1045D00072742000486F6D6500456E7465722050DE
:1045E000617373776F72643A200052656E746572FE
:1045F0002050617373776F72643A00456E74657210
:10460000204E657720506173733A00537973746557
:104610006D206973204F70656E000000000000007F
:104620000000000102020303030304040404040461
:10463000040405050505050505050505050505052C
:10464000050506060606060606060606060606060C
:1046500006060606060606060606060606060606FA
:1046600006060707070707070707070707070707DC
:1046700007070707070707070707070707070707CA
:1046800007070707070707070707070707070707BA
:1046900007070707070707070707070707070707AA
:1046A000070708080808080808080808080808088C
:1046B000080808080808080808080808080808087A
:1046C000080808080808080808080808080808086A
:1046D000080808080808080808080808080808085A
:1046E000080808080808080808080808080808084A
:1046F000080808080808080808080808080808083A
:104700000808080808080808080808080808080829
:104710000808080808080808080808080808080819
:104720000808000102030405060708090A0B020035
:1047300000000000038025000000010400000707BE
:1047400008092F0405062A0102032D23003D2B0032
:00000001FF
