:100000000C942A000C9447000C9447000C94470071
:100010000C9447000C9447000C9436130C94470042
:100020000C9447000C9447000C9435100C9402106B
:100030000C9447000C9447000C9447000C94470024
:100040000C9447000C9447000C9447000C94470014
:100050000C94470011241FBECFE5D8E0DEBFCDBF12
:1000600011E0A0E6B0E0E2EBFFE202C005900D92E5
:10007000A637B107D9F711E0A6E7B1E001C01D929C
:10008000AC37B107E1F70E9417070C94D7170C940F
:100090000000EF92FF920F931F937B018C0120E0F1
:1000A00030E040E05FE40E94F50388238CF0C80153
:1000B000B70120E030E040E05FE40E94C1010E940F
:1000C00055049B01AC01205030404040504806C0D0
:1000D000C801B7010E9455049B01AC01B901CA01D6
:1000E0001F910F91FF90EF900895A0E0B0E0EBE733
:1000F000F0E00C94A017DC012B01FA019C919230E6
:1001000008F439C1EB018881823008F433C194309E
:1001100069F4843009F02FC111969C91119789815F
:10012000981709F428C1A0E6B0E025C1843009F48D
:1001300021C18230A9F4923009F01DC19A01AD01AC
:1001400088E0EA010990AE01E90109929E0181501F
:10015000C1F7E201898111969C918923818308C1AD
:10016000923009F407C112962D903C901397EB0141
:100170008A819B811496AD90BD90CD90DC901797AD
:10018000EC80FD800E811F819101281B390BB90184
:1001900037FF04C066277727621B730B6032710537
:1001A0000CF061C0121613066CF537014801062EDB
:1001B00004C096948794779467940A94D2F721E0C8
:1001C00030E040E050E004C0220F331F441F551FB1
:1001D0006A95D2F721503040404050402E213F21B7
:1001E00040235123211531054105510521F021E01E
:1001F00030E040E050E079018A01E628F72808293C
:1002000019293CC0232BD1F1260E371E350146019A
:10021000062E04C096948794779467940A94D2F734
:1002200021E030E040E050E004C0220F331F441FC3
:10023000551F6A95D2F721503040404050402A2146
:100240003B214C215D21211531054105510521F04E
:1002500021E030E040E050E059016A01A628B728CB
:10026000C828D9280BC0821593052CF01C01AA249C
:10027000BB24650103C0EE24FF24870111969C91E5
:10028000D20111968C91981709F445C0992339F041
:10029000A80197012A193B094C095D0906C0A6016E
:1002A00095012E193F09400B510B57FD08C01182D3
:1002B0003382228224833583468357831DC081E0A5
:1002C00081833382228288279927DC01821B930B4A
:1002D000A40BB50B84839583A683B7830DC0220F2F
:1002E000331F441F551F24833583468357838281E0
:1002F000938101979383828324813581468157813D
:10030000DA01C9010197A109B1098F5F9F4FAF4F72
:10031000BF4328F30BC0918333822282EA0CFB1C7B
:100320000C1D1D1DE482F5820683178383E0808304
:10033000248135814681578157FF1AC0C901AA27F8
:1003400097FDA095BA2F81709070A070B0705695EF
:10035000479537952795822B932BA42BB52B848318
:100360009583A683B7838281938101969383828349
:10037000DF0101C0D201CD01CDB7DEB7E2E10C94BF
:10038000BC17A0E2B0E0E7ECF1E00C94AC17698395
:100390007A838B839C832D833E834F835887E9E048
:1003A000EE2EF12CEC0EFD1ECE010196B7010E943F
:1003B00046068E010F5E1F4FCE010596B8010E94C2
:1003C00046068A8991E089278A8BC701B801AE0168
:1003D000475E5F4F0E9475000E947105A096E6E09F
:1003E0000C94C817A0E2B0E0E8EFF1E00C94AC1771
:1003F00069837A838B839C832D833E834F835887C5
:10040000F9E0EF2EF12CEC0EFD1ECE010196B701A6
:100410000E9446068E010F5E1F4FCE010596B80161
:100420000E944606C701B801AE01475E5F4F0E94B9
:1004300075000E947105A096E6E00C94C817A0E232
:10044000B0E0E5E2F2E00C94A01769837A838B8335
:100450009C832D833E834F835887CE010196BE0136
:10046000675F7F4F0E944606CE010596BE016F5E14
:100470007F4F0E9446069985923088F089898230A4
:10048000C8F0943019F4823051F404C0843029F457
:10049000923081F480E690E0C6C0923049F420E0CA
:1004A0009A858A89981321E02A87CE010996BBC0D4
:1004B000823049F420E09A858A89981321E02A8BBA
:1004C000CE014196B0C02D843E844F8458886D88FB
:1004D0007E888F88988CEE24FF248701AA24BB2471
:1004E000650140E050E060E070E0E0E0F0E0C10174
:1004F00081709070892BE9F0E60CF71C081D191D1E
:100500009A01AB012A0D3B1D4C1D5D1D80E090E062
:10051000A0E0B0E0E614F7040805190520F481E036
:1005200090E0A0E0B0E0BA01A901480F591F6A1F8E
:100530007B1FAA0CBB1CCC1CDD1C97FE08C081E0F5
:1005400090E0A0E0B0E0A82AB92ACA2ADB2A3196B6
:10055000E032F10549F0660C771C881C991C569412
:10056000479437942794C3CFFA85EA892B893C892D
:100570008B859C85280F391F2E5F3F4F17C0CA01FE
:1005800081709070892B61F016950795F794E79428
:1005900080E090E0A0E0B0E8E82AF92A0A2B1B2BC3
:1005A00076956795579547952F5F3F4F77FDE7CF36
:1005B0000CC0440F551F661F771F17FD4160EE0CDE
:1005C000FF1C001F111F21503040403090E05907A0
:1005D00090E0690790E4790760F32B8F3C8FDB0193
:1005E000CA018F779070A070B07080349105A1051A
:1005F000B10561F447FD0AC0E114F10401051105DC
:1006000029F0405C5F4F6F4F7F4F40781A8EFE1786
:1006100011F081E08A8F4D8F5E8F6F8F78A383E01A
:10062000898FCE0149960E947105A096E2E10C9453
:10063000BC17A8E1B0E0EFE1F3E00C94A8176983E0
:100640007A838B839C832D833E834F835887B9E0C5
:10065000EB2EF12CEC0EFD1ECE010196B7010E948F
:1006600046068E010F5E1F4FCE010596B8010E940F
:1006700046062985223008F47EC03989323010F4CC
:10068000B8017CC08A859A8989278A87243011F02D
:10069000223031F4231709F06EC060E670E06EC0BE
:1006A000343039F41D861E861F86188A1C861B86E8
:1006B00004C0323021F484E08987B7015FC02B8504
:1006C0003C858B899C89281B390B3C872B87ED84C3
:1006D000FE840F851889AD88BE88CF88D88CEA142F
:1006E000FB040C051D0540F4EE0CFF1C001F111F40
:1006F000215030403C872B8720E030E040E050E044
:1007000080E090E0A0E0B0E460E070E0EA14FB0478
:100710000C051D0540F0282B392B4A2B5B2BEA18C2
:10072000FB080C091D09B695A79597958795EE0CC2
:10073000FF1C001F111F6F5F7F4F6F31710531F775
:10074000DA01C9018F779070A070B0708034910584
:10075000A105B10561F427FD0AC0E114F10401050A
:10076000110529F0205C3F4F4F4F5F4F20782D87B8
:100770003E874F87588BBE01675F7F4FCB010E943A
:1007800071056896EAE00C94C417A8E1B0E0EBECC0
:10079000F3E00C94AC1769837A838B839C832D835D
:1007A0003E834F83588789E0E82EF12CEC0EFD1E26
:1007B000CE010196B7010E9446068E010F5E1F4FC3
:1007C000CE010596B8010E9446068985823040F028
:1007D0008989823028F0C701B8010E94BE0601C095
:1007E0008FEF6896E6E00C94C817A8E1B0E0EBEF55
:1007F000F3E00C94AC1769837A838B839C832D83FD
:100800003E834F83588789E0E82EF12CEC0EFD1EC5
:10081000CE010196B7010E9446068E010F5E1F4F62
:10082000CE010596B8010E9446068985823040F0C7
:100830008989823028F0C701B8010E94BE0601C034
:100840008FEF6896E6E00C94C817A8E1B0E0EBE201
:10085000F4E00C94AC1769837A838B839C832D839B
:100860003E834F83588789E0E82EF12CEC0EFD1E65
:10087000CE010196B7010E9446068E010F5E1F4F02
:10088000CE010596B8010E9446068985823040F067
:100890008989823028F0C701B8010E94BE0601C0D4
:1008A00081E06896E6E00C94C817ACE0B0E0EBE5B8
:1008B000F4E00C94B01769837A838B839C83CE0118
:1008C0000196BE016B5F7F4F0E9446068D8182308C
:1008D00061F1823050F1843021F48E81882351F10E
:1008E0002EC02F81388537FD20C06E812F31310514
:1008F0001CF06623F9F023C08EE190E0821B930B7D
:1009000029853A854B855C8504C056954795379572
:1009100027958A95D2F76623B1F05095409530958A
:1009200021953F4F4F4F5F4F0EC020E030E040E039
:1009300050E009C02FEF3FEF4FEF5FE704C020E02A
:1009400030E040E050E8B901CA012C96E2E00C9496
:10095000CC17A8E0B0E0EFEAF4E00C94A8177B0114
:100960008C01611571058105910519F482E0898377
:1009700060C083E089838EE1C82ED12CDC82CB82DB
:10098000ED82FE820F831887C801B7010E942205FD
:10099000FC013197F7FF3BC0222733272E1B3F0B6B
:1009A00057016801022E04C0D694C794B794A79447
:1009B0000A94D2F740E050E060E070E081E090E01F
:1009C000A0E0B0E004C0880F991FAA1FBB1F2A95A2
:1009D000D2F70197A109B1098E219F21A023B1234C
:1009E0000097A105B10521F041E050E060E070E022
:1009F0004A295B296C297D294D835E836F83788723
:100A00008EE190E08E1B9F0B9C838B8312C03097EE
:100A100081F00E2E04C0EE0CFF1C001F111F0A9463
:100A2000D2F7ED82FE820F831887CE1ADF0ADC82AE
:100A3000CB821A82CE0101960E9471052896EAE0C7
:100A40000C94C417EF92FF920F931F937B018C01BC
:100A500080E0E81680E0F80681E0080780E01807EB
:100A600088F48FEFE816F1040105110531F028F044
:100A700088E090E0A0E0B0E017C080E090E0A0E067
:100A8000B0E012C080E0E81680E0F80680E00807D9
:100A900081E0180728F088E190E0A0E0B0E004C011
:100AA00080E190E0A0E0B0E020E230E040E050E003
:100AB000281B390B4A0B5B0B04C016950795F7945E
:100AC000E7948A95D2F7F701E859FF4F8081281BF8
:100AD000310941095109C9011F910F91FF90EF9010
:100AE0000895DF92EF92FF920F931F93FC01E48031
:100AF000F58006811781D1808081823048F480E0C2
:100B000090E0A0E1B0E0E82AF92A0A2B1B2BA5C04F
:100B1000843009F49FC0823021F4EE24FF24870141
:100B200005C0E114F1040105110519F4E0E0F0E05D
:100B300096C0628173819FEF623879070CF05BC0C9
:100B400022E83FEF261B370B2A3131052CF020E03D
:100B500030E040E050E02AC0B801A701022E04C0F6
:100B600076956795579547950A94D2F781E090E07E
:100B7000A0E0B0E004C0880F991FAA1FBB1F2A95F0
:100B8000D2F70197A109B1098E219F21A023B1239A
:100B90000097A105B10521F081E090E0A0E0B0E070
:100BA0009A01AB01282B392B4A2B5B2BDA01C901A7
:100BB0008F779070A070B07080349105A105B10559
:100BC00039F427FF09C0205C3F4F4F4F5F4F04C0EF
:100BD000215C3F4F4F4F5F4FE0E0F0E02030A0E05E
:100BE0003A07A0E04A07A0E45A0710F0E1E0F0E07D
:100BF00079018A0127C06038710564F5FB01E1586D
:100C0000FF4FD801C7018F779070A070B07080340B
:100C10009105A105B10539F4E7FE0DC080E490E02F
:100C2000A0E0B0E004C08FE390E0A0E0B0E0E80E08
:100C3000F91E0A1F1B1F17FF05C016950795F7948D
:100C4000E794319687E016950795F794E7948A958F
:100C5000D1F705C0EE24FF248701EFEFF0E06E2FFF
:100C6000679566276795902F9F77D794DD24D79453
:100C70008E2F8695492F462B582F5D29B701CA0123
:100C80001F910F91FF90EF90DF900895FC01DB0121
:100C9000408151812281622F6F7770E0221F2227CD
:100CA000221F9381892F880F822B282F30E0991FD4
:100CB0009927991F11969C93119721153105A9F534
:100CC000411551056105710511F482E037C082E8D4
:100CD0009FEF13969C938E9312979A01AB0167E056
:100CE000220F331F441F551F6A95D1F783E08C9361
:100CF0000DC0220F331F441F551F12968D919C91DA
:100D00001397019713969C938E931297203080E04F
:100D1000380780E0480780E4580758F314962D936D
:100D20003D934D935C93179708952F3F310579F4C8
:100D3000411551056105710519F484E08C930895FE
:100D400064FF03C081E08C9312C01C9210C02F5727
:100D5000304013963C932E93129783E08C9387E058
:100D6000440F551F661F771F8A95D1F7706414963C
:100D70004D935D936D937C93179708951F93DC01BA
:100D8000FB019C91923008F447C08081823008F4C6
:100D900043C0943051F411961C91843099F58181AF
:100DA000682F70E0611B71093FC0843021F09230E0
:100DB00031F48230B9F18181882389F12DC01196F7
:100DC0001C9111978230F1F081811817D9F4129695
:100DD0002D913C911397828193818217930794F010
:100DE00028173907BCF014968D919D910D90BC91F8
:100DF000A02D2481358146815781281739074A075C
:100E00005B0718F4112341F00AC082179307A40767
:100E1000B50740F4112319F061E070E005C06FEFF1
:100E20007FEF02C060E070E0CB011F910895DF9377
:100E3000CF93CDB7DEB765970FB6F894DEBF0FBE80
:100E4000CDBF1D8281E891E09A8389839E012A5F4C
:100E50003F4F3A8B298B82E791E09C8B8B8B93E001
:100E60009D8BAB89BC890C90EB89FC893196FC8BFE
:100E7000EB8BA989BA890C92E989FA893196FA8BA8
:100E8000E98BFD89F150FD8B2D89222351F786E0F6
:100E9000FE013996DF01282F1D922A95E9F786E099
:100EA0008B87CE0109960E94C20D82ED97E00E94C9
:100EB000DB0F0E944B090E946913CE0106960E9427
:100EC000F2130E94B3148FEF0E9445148C3CD9F7A3
:100ED00082E00E94ED0F8FEF0E944514809377010E
:100EE00080917701A82FB0E0B88BAF87EF85F889A4
:100EF000E333F10551F12F853889243331055CF452
:100F00008F85988981339105B1F0AF85B889A23377
:100F1000B105B1F025C0EF85F889E533F105D9F0C9
:100F20002F853889253331059CF08F859889863344
:100F30009105A1F015C086EF99E00E947A1310C0C8
:100F400082EC91E00E947A130BC00E94F40708C063
:100F50000E94000805C081E08D8302C082E08D837D
:100F60002B813C8189819A8128173907B8F48D81BA
:100F7000813041F48B819C8101969C838B830E94FC
:100F80002E15A9CF8D81823009F0A5CF8B819C8150
:100F900001969C838B830E941F159DCF1C821B8210
:100FA0001D8299CFDF93CF93CDB7DEB786E00E9445
:100FB000CD0F809176018F5F8093760180917601CD
:100FC000843629F4809177010E940C080AC0809130
:100FD0007601883731F410927601809177010E9472
:100FE0003D09CF91DF910895DF93CF93CDB7DEB761
:100FF00082E061E041E00E94010BCF91DF91089512
:10100000DF93CF93CDB7DEB782E061E040E00E948E
:10101000010BCF91DF910895DF93CF93CDB7DEB76A
:101020006F970FB6F894DEBF0FBECDBF8F8F8F8D39
:101030008F778F8F8F8D9AE0692F0E949417892F59
:10104000882F90E0FC01E859FE4F80818E8F8F8DB4
:101050009AE0692F0E949417882F90E0FC01E859CC
:10106000FE4F808180688D8F81E067E040E00E94C4
:10107000010B82E060E041E00E94010B81E06E8D97
:101080000E94A10C80E090E0A0E0B0E4898F9A8FEC
:10109000AB8FBC8F698D7A8D8B8D9C8D20E030E07D
:1010A0004AEF54E40E941F02DC01CB018D8B9E8B22
:1010B000AF8BB88F6D897E898F89988D20E030E065
:1010C00040E85FE30E94250488232CF481E090E04F
:1010D0009C8B8B8B3FC06D897E898F89988D20E09A
:1010E0003FEF4FE757E40E94C50318164CF5698D92
:1010F0007A8D8B8D9C8D20E030E040E251E40E949F
:101100001F02DC01CB01BC01CD010E944900DC01C2
:10111000CB019C8B8B8B0FC088EC90E09A8B898BDA
:1011200089899A890197F1F79A8B898B8B899C8998
:1011300001979C8B8B8B8B899C89009769F714C0D6
:101140006D897E898F89988D0E944900DC01CB01D1
:101150009C8B8B8B8B899C89988B8F878F859889AB
:101160000197F1F7988B8F8781E067E041E00E945B
:10117000010B82E060E040E00E94010B81E06D8D98
:101180000E94A10C80E090E0A0E0B0E48B879C87F7
:10119000AD87BE876B857C858D859E8520E030E0A0
:1011A0004AEF54E40E941F02DC01CB018F83988731
:1011B000A987BA876F81788589859A8520E030E094
:1011C00040E85FE30E94250488232CF481E090E04E
:1011D0009E838D833FC06F81788589859A8520E0C5
:1011E0003FEF4FE757E40E94C50318164CF56B8597
:1011F0007C858D859E8520E030E040E251E40E94B0
:101200001F02DC01CB01BC01CD010E944900DC01C1
:10121000CB019E838D830FC088EC90E09C838B83F1
:101220008B819C810197F1F79C838B838D819E81BB
:1012300001979E838D838D819E81009769F714C0ED
:101240006F81788589859A850E944900DC01CB01F0
:101250009E838D838D819E819A83898389819A81E2
:101260000197F1F79A8389836F960FB6F894DEBFE2
:101270000FBECDBFCF91DF910895DF93CF930F9233
:10128000CDB7DEB7898383E069810E94A10C0F90FE
:10129000CF91DF910895DF93CF93CDB7DEB7EAE327
:1012A000F0E08FEF8083E7E3F0E083E48083E4E322
:1012B000F0E08FEF8083E1E3F0E08FE28083EBE307
:1012C000F0E01082E8E3F0E01082E5E3F0E0108265
:1012D000E2E3F0E01082CF91DF910895DF93CF93A6
:1012E00000D000D00F92CDB7DEB78A836B8319820E
:1012F0008B81883010F081E08983A0E5B0E0E0E5E3
:10130000F0E080818B7F8C938A81282F30E03D83B1
:101310002C838C819D818230910551F12C813D81FE
:101320002330310534F48C819D818130910561F049
:101330005BC02C813D812330310571F18C819D8111
:1013400084309105E9F150C0ABE3B0E0EBE3F0E0AD
:101350008081482F8B81282F30E081E090E0022EA1
:1013600002C0880F991F0A94E2F7842B8C933EC029
:10137000A8E3B0E0E8E3F0E08081482F8B81282FDC
:1013800030E081E090E0022E02C0880F991F0A949D
:10139000E2F7842B8C932AC0A5E3B0E0E5E3F0E00C
:1013A0008081482F8B81282F30E081E090E0022E51
:1013B00002C0880F991F0A94E2F7842B8C9316C001
:1013C000A2E3B0E0E2E3F0E08081482F8B81282F98
:1013D00030E081E090E0022E02C0880F991F0A944D
:1013E000E2F7842B8C9302C081E0898389810F907E
:1013F0000F900F900F900F90CF91DF910895DF9392
:10140000CF93CDB7DEB727970FB6F894DEBF0FBEE8
:10141000CDBF89836A834B838B81882309F075C094
:101420008981282F30E03F832E838E819F818230F7
:10143000910561F12E813F812330310534F48E8195
:101440009F818130910569F0D3C02E813F81233087
:10145000310589F18E819F818430910509F440C066
:10146000C7C0AAE3B0E0EAE3F0E08081482F8A81B8
:10147000282F30E081E090E0022E02C0880F991FF3
:101480000A94E2F7809584238C93B2C0A7E3B0E07E
:10149000E7E3F0E08081482F8A81282F30E081E067
:1014A00090E0022E02C0880F991F0A94E2F78095FF
:1014B00084238C939DC0A4E3B0E0E4E3F0E080815A
:1014C000482F8A81282F30E081E090E0022E02C070
:1014D000880F991F0A94E2F7809584238C9388C023
:1014E000A1E3B0E0E1E3F0E08081482F8A81282F7A
:1014F00030E081E090E0022E02C0880F991F0A942C
:10150000E2F7809584238C9373C08B81813009F03E
:101510006FC08981282F30E03D832C838C819D8191
:101520008230910551F12C813D812330310534F415
:101530008C819D818130910561F05AC02C813D8163
:101540002330310571F18C819D8184309105E9F161
:101550004FC0AAE3B0E0EAE3F0E08081482F8A813F
:10156000282F30E081E090E0022E02C0880F991F02
:101570000A94E2F7842B8C933BC0A7E3B0E0E7E347
:10158000F0E08081482F8A81282F30E081E090E0D0
:10159000022E02C0880F991F0A94E2F7842B8C93C5
:1015A00027C0A4E3B0E0E4E3F0E08081482F8A8123
:1015B000282F30E081E090E0022E02C0880F991FB2
:1015C0000A94E2F7842B8C9313C0A1E3B0E0E1E32B
:1015D000F0E08081482F8A81282F30E081E090E080
:1015E000022E02C0880F991F0A94E2F7842B8C9375
:1015F00027960FB6F894DEBF0FBECDBFCF91DF9117
:101600000895DF93CF93CDB7DEB728970FB6F89440
:10161000DEBF0FBECDBF8A836B834C8319828B8163
:10162000883010F081E089838C81882309F078C0AC
:101630008A81282F30E038872F838F8198858230E8
:10164000910561F12F8138852330310534F48F8184
:1016500098858130910569F060C02F8138852330ED
:10166000310589F18F8198858430910509F440C056
:1016700054C0ABE3B0E0EBE3F0E08081482F8B8116
:10168000282F30E081E090E0022E02C0880F991FE1
:101690000A94E2F7809584238C93B8C0A8E3B0E065
:1016A000E8E3F0E08081482F8B81282F30E081E053
:1016B00090E0022E02C0880F991F0A94E2F78095ED
:1016C00084238C93A3C0A5E3B0E0E5E3F0E0808140
:1016D000482F8B81282F30E081E090E0022E02C05D
:1016E000880F991F0A94E2F7809584238C938EC00B
:1016F000A2E3B0E0E2E3F0E08081482F8B81282F65
:1017000030E081E090E0022E02C0880F991F0A9419
:10171000E2F7809584238C9379C081E0898376C039
:101720008C81813009F072C08A81282F30E03E839D
:101730002D838D819E818230910551F12D813E81D5
:101740002330310534F48D819E818130910561F023
:101750005BC02D813E812330310571F18D819E81E9
:1017600084309105E9F150C0ABE3B0E0EBE3F0E089
:101770008081482F8B81282F30E081E090E0022E7D
:1017800002C0880F991F0A94E2F7842B8C933EC005
:10179000A8E3B0E0E8E3F0E08081482F8B81282FB8
:1017A00030E081E090E0022E02C0880F991F0A9479
:1017B000E2F7842B8C932AC0A5E3B0E0E5E3F0E0E8
:1017C0008081482F8B81282F30E081E090E0022E2D
:1017D00002C0880F991F0A94E2F7842B8C9316C0DD
:1017E000A2E3B0E0E2E3F0E08081482F8B81282F74
:1017F00030E081E090E0022E02C0880F991F0A9429
:10180000E2F7842B8C9302C081E08983898128963A
:101810000FB6F894DEBF0FBECDBFCF91DF91089514
:10182000DF93CF93CDB7DEB727970FB6F894DEBF1F
:101830000FBECDBF8A836B835D834C8319828B81FE
:10184000883010F081E089838A81282F30E03F833F
:101850002E834E815F814230510559F18E819F81E7
:101860008330910534F42E813F812130310569F0B8
:101870005CC04E815F814330510579F18E819F813B
:101880008430910509F43DC050C0E9E3F0E0808167
:10189000282F30E08B81882F90E0A90102C0559558
:1018A00047958A95E2F7CA018170EC81FD818083BA
:1018B0003EC0E6E3F0E08081282F30E08B81882F66
:1018C00090E0A90102C0559547958A95E2F7CA01B3
:1018D0008170EC81FD8180832AC0E3E3F0E08081A8
:1018E000282F30E08B81882F90E0A90102C0559508
:1018F00047958A95E2F7CA018170EC81FD8180836A
:1019000016C0E0E3F0E08081282F30E08B81882F43
:1019100090E0A90102C0559547958A95E2F7CA0162
:101920008170EC81FD81808302C081E0898389819F
:1019300027960FB6F894DEBF0FBECDBFCF91DF91D3
:101940000895DF93CF9300D000D00F92CDB7DEB7CC
:101950008A836B8319828A81282F30E03D832C8310
:101960008C819D8182309105D9F02C813D8123307D
:10197000310534F48C819D818130910561F01FC067
:101980002C813D812330310581F08C819D81843013
:10199000910581F014C0EBE3F0E08B81808311C0EE
:1019A000E8E3F0E08B8180830CC0E5E3F0E08B811D
:1019B000808307C0E2E3F0E08B81808302C081E096
:1019C000898389810F900F900F900F900F90CF9186
:1019D000DF910895DF93CF9300D000D000D0CDB732
:1019E000DEB78A837C836B8319828A81282F30E05B
:1019F0003E832D838D819E8182309105E9F02D817A
:101A00003E812330310534F48D819E8181309105F2
:101A100061F027C02D813E8123303105A1F08D81F9
:101A20009E8184309105B1F01CC0E9E3F0E0808133
:101A3000EB81FC81808317C0E6E3F0E08081EB81DD
:101A4000FC81808310C0E3E3F0E08081EB81FC81C6
:101A5000808309C0E0E3F0E08081EB81FC8180833A
:101A600002C081E08983898126960FB6F894DEBF93
:101A70000FBECDBFCF91DF910895DF93CF9300D0FC
:101A800000D00F92CDB7DEB78A836B8319828A812B
:101A9000282F30E03D832C838C819D8182309105FD
:101AA00051F12C813D812330310534F48C819D81AD
:101AB0008130910561F05BC02C813D81233031057F
:101AC00071F18C819D8184309105E9F150C0ABE3C7
:101AD000B0E0EBE3F0E08081482F8B81282F30E0ED
:101AE00081E090E0022E02C0880F991F0A94E2F76D
:101AF00084278C933EC0A8E3B0E0E8E3F0E0808167
:101B0000482F8B81282F30E081E090E0022E02C028
:101B1000880F991F0A94E2F784278C932AC0A5E3C3
:101B2000B0E0E5E3F0E08081482F8B81282F30E0A2
:101B300081E090E0022E02C0880F991F0A94E2F71C
:101B400084278C9316C0A2E3B0E0E2E3F0E080814A
:101B5000482F8B81282F30E081E090E0022E02C0D8
:101B6000880F991F0A94E2F784278C9302C081E0C2
:101B7000898389810F900F900F900F900F90CF91D4
:101B8000DF910895DF93CF9300D000D0CDB7DEB7BB
:101B90009A838983A2E5B0E0E981FA8182818C93FE
:101BA000E981FA8180818823B1F4A3E5B0E0E3E51F
:101BB000F0E080818F7B8C93A3E5B0E0E3E5F0E07B
:101BC0008081877F8C93A9E5B0E0E9E5F0E0808132
:101BD00081608C93C7C0E981FA818081823009F0ED
:101BE0006CC0A3E5B0E0E3E5F0E080818F7B8C93EF
:101BF000A3E5B0E0E3E5F0E0808188608C93A9E59F
:101C0000B0E0E9E5F0E0808182608C93ACE5B0E083
:101C1000E981FA8183818C93E981FA818481882327
:101C200079F4A3E5B0E0E3E5F0E080818F7E8C936A
:101C3000A3E5B0E0E3E5F0E080818F7D8C9392C076
:101C4000E981FA818481813079F4A3E5B0E0E3E5AC
:101C5000F0E0808180618C93A3E5B0E0E3E5F0E003
:101C600080818F7D8C937EC0E981FA81848182306E
:101C700079F4A3E5B0E0E3E5F0E080818F7E8C931A
:101C8000A3E5B0E0E3E5F0E0808180628C936AC078
:101C9000E981FA818481833009F064C0A3E5B0E072
:101CA000E3E5F0E0808180618C93A3E5B0E0E3E5BB
:101CB000F0E0808180628C9355C0E981FA81808157
:101CC000833009F04FC0A3E5B0E0E3E5F0E08081A8
:101CD00080648C93A3E5B0E0E3E5F0E08081886068
:101CE0008C93ACE5B0E0E981FA8183818C93E98142
:101CF000FA818581882379F4A3E5B0E0E3E5F0E09B
:101D000080818F7E8C93A3E5B0E0E3E5F0E08081F5
:101D10008F7D8C9327C0E981FA818581823079F4A7
:101D2000A3E5B0E0E3E5F0E080818F7E8C93A3E54E
:101D3000B0E0E3E5F0E0808180628C9313C0E9813C
:101D4000FA818581833071F4A3E5B0E0E3E5F0E04A
:101D5000808180618C93A3E5B0E0E3E5F0E08081D1
:101D600080628C93E981FA818181282F30E03C8365
:101D70002B838B819C818330910509F470C02B816A
:101D80003C812430310584F48B819C818130910524
:101D9000D1F12B813C81223031050CF04AC08B817E
:101DA0009C810097D1F0C8C02B813C812530310542
:101DB00009F481C08B819C81853091050CF465C04C
:101DC0002B813C812630310509F48BC08B819C81AD
:101DD0008730910509F49BC0AFC0A3E5B0E0E3E50F
:101DE000F0E080818E7F8C93A3E5B0E0E3E5F0E046
:101DF00080818D7F8C93A3E5B0E0E3E5F0E0808106
:101E00008B7F8C9399C0A3E5B0E0E3E5F0E080819F
:101E100081608C93A3E5B0E0E3E5F0E080818D7F05
:101E20008C93A3E5B0E0E3E5F0E080818B7F8C93B9
:101E300083C0A3E5B0E0E3E5F0E080818E7F8C9382
:101E4000A3E5B0E0E3E5F0E0808182608C93A3E558
:101E5000B0E0E3E5F0E080818B7F8C936DC0A3E57B
:101E6000B0E0E3E5F0E0808181608C93A3E5B0E031
:101E7000E3E5F0E0808182608C93A3E5B0E0E3E5E8
:101E8000F0E080818B7F8C9357C0A3E5B0E0E3E561
:101E9000F0E080818E7F8C93A3E5B0E0E3E5F0E095
:101EA00080818D7F8C93A3E5B0E0E3E5F0E0808155
:101EB00084608C9341C0A3E5B0E0E3E5F0E080816D
:101EC00081608C93A3E5B0E0E3E5F0E080818D7F55
:101ED0008C93A3E5B0E0E3E5F0E0808184608C932F
:101EE0002BC0A3E5B0E0E3E5F0E080818E7F8C932A
:101EF000A3E5B0E0E3E5F0E0808182608C93A3E5A8
:101F0000B0E0E3E5F0E0808184608C9315C0A3E548
:101F1000B0E0E3E5F0E0808181608C93A3E5B0E080
:101F2000E3E5F0E0808182608C93A3E5B0E0E3E537
:101F3000F0E0808184608C930F900F900F900F9051
:101F4000CF91DF910895DF93CF930F92CDB7DEB796
:101F50008983ECE5F0E0898180830F90CF91DF9158
:101F60000895DF93CF93CDB7DEB7A3E5B0E0E3E507
:101F7000F0E080818E7F8C93A3E5B0E0E3E5F0E0B4
:101F800080818D7F8C93A3E5B0E0E3E5F0E0808174
:101F90008B7F8C93CF91DF910895DF93CF930F9236
:101FA000CDB7DEB78983E2E5F0E0898180830F90C9
:101FB000CF91DF910895DF93CF9300D0CDB7DEB7F7
:101FC0009A83898389819A8190937B0180937A0196
:101FD0000F900F90CF91DF910895DF93CF930F92E1
:101FE000CDB7DEB78983A3E5B0E0E3E5F0E080811B
:101FF000982F987F89818770892B8C930F90CF9130
:10200000DF9108951F920F920FB60F9211242F9314
:102010003F934F935F936F937F938F939F93AF9370
:10202000BF93EF93FF93DF93CF93CDB7DEB780914C
:102030007A0190917B01009729F0E0917A01F0916B
:102040007B010995CF91DF91FF91EF91BF91AF9106
:102050009F918F917F916F915F914F913F912F91C0
:102060000F900FBE0F901F9018951F920F920FB6F2
:102070000F9211242F933F934F935F936F937F930E
:102080008F939F93AF93BF93EF93FF93DF93CF9380
:10209000CDB7DEB780917A0190917B01009729F04E
:1020A000E0917A01F0917B010995CF91DF91FF9149
:1020B000EF91BF91AF919F918F917F916F915F91C0
:1020C0004F913F912F910F900FBE0F901F90189539
:1020D000DF93CF93CDB7DEB729970FB6F894DEBF65
:1020E0000FBECDBF89836A834B838981282F30E05F
:1020F000398728878885998582309105D1F128858F
:102100003985233031055CF4888599850097A1F0E5
:10211000288539852130310509F448C09DC088855E
:1021200099858330910509F45EC02885398524306E
:10213000310509F475C090C0AFE4B0E0EFE4F0E021
:1021400080818E7F8C93AFE4B0E0EFE4F0E080819B
:102150008D7F8C93AEE4B0E0EEE4F0E08081877F89
:102160008C93AEE4B0E0EEE4F0E080818F7E8C935F
:1021700073C0AFE4B0E0EFE4F0E080818E7F8C9339
:10218000AFE4B0E0EFE4F0E080818D7F8C93AEE4CB
:10219000B0E0EEE4F0E0808188608C93AEE4B0E0E3
:1021A000EEE4F0E0808180618C9356C0AFE4B0E053
:1021B000EFE4F0E080818E7F8C93AFE4B0E0EFE459
:1021C000F0E080818D7F8C93AEE4B0E0EEE4F0E04F
:1021D000808188608C93AEE4B0E0EEE4F0E0808132
:1021E0008F7E8C9339C0AFE4B0E0EFE4F0E0808103
:1021F0008E7F8C93AFE4B0E0EFE4F0E0808182600A
:102200008C93AEE4B0E0EEE4F0E0808188608C93E3
:10221000AEE4B0E0EEE4F0E0808180618C931CC01D
:10222000AFE4B0E0EFE4F0E0808181608C93AFE454
:10223000B0E0EFE4F0E0808182608C93AEE4B0E047
:10224000EEE4F0E0808188608C93AEE4B0E0EEE4F0
:10225000F0E0808180618C938A81282F30E03F8379
:102260002E838E819F818230910509F45CC02E817E
:102270003F812330310554F48E819F810097C9F04E
:102280002E813F812130310589F1C0C08E819F812F
:102290008430910509F481C02E813F8124303105BD
:1022A0000CF45EC08E819F818530910509F492C047
:1022B000ADC0AFE4B0E0EFE4F0E080818F7B8C93C1
:1022C000AFE4B0E0EFE4F0E080818F7E8C93AFE488
:1022D000B0E0EFE4F0E080818F778C93AFE4B0E082
:1022E000EFE4F0E080818F7D8C9390C0AFE4B0E0AC
:1022F000EFE4F0E0808180648C93AFE4B0E0EFE441
:10230000F0E0808180618C93AFE4B0E0EFE4F0E036
:1023100080818F778C93AFE4B0E0EFE4F0E08081D0
:102320008F7D8C9373C0AFE4B0E0EFE4F0E0808188
:1023300080648C93AFE4B0E0EFE4F0E080818061F2
:102340008C93AFE4B0E0EFE4F0E0808180688C93A0
:10235000AFE4B0E0EFE4F0E0808180628C9356C09F
:10236000AFE4B0E0EFE4F0E080818F7B8C93AFE4EA
:10237000B0E0EFE4F0E080818F7E8C93AFE4B0E0DA
:10238000EFE4F0E0808180688C93AFE4B0E0EFE4AC
:10239000F0E0808180628C9339C0AFE4B0E0EFE47C
:1023A000F0E080818F7B8C93AFE4B0E0EFE4F0E06D
:1023B00080818F7E8C93AFE4B0E0EFE4F0E0808129
:1023C00080688C93AFE4B0E0EFE4F0E0808180625D
:1023D0008C931CC0AFE4B0E0EFE4F0E08081806457
:1023E0008C93AFE4B0E0EFE4F0E0808180618C9307
:1023F000AFE4B0E0EFE4F0E0808180688C93AFE47C
:10240000B0E0EFE4F0E0808180628C938B81282F34
:1024100030E03D832C838C819D818130910501F1D9
:102420002C813D812230310589F18C819D8100977D
:1024300009F041C0AEE4B0E0EEE4F0E080818E7FD0
:102440008C93AEE4B0E0EEE4F0E0808182608C93A7
:10245000AEE4B0E0EEE4F0E080818B7F8C932BC0A3
:10246000AEE4B0E0EEE4F0E0808181608C93AEE415
:10247000B0E0EEE4F0E0808182608C93AEE4B0E006
:10248000EEE4F0E080818B7F8C9315C0AEE4B0E089
:10249000EEE4F0E080818E7F8C93AEE4B0E0EEE479
:1024A000F0E080818D7F8C93AEE4B0E0EEE4F0E06C
:1024B000808184608C9329960FB6F894DEBF0FBE9E
:1024C000CDBFCF91DF910895DF93CF9300D000D09F
:1024D0000F92CDB7DEB79A8389836B838B81282FC8
:1024E00030E03D832C838C819D818230910521F1E8
:1024F0002C813D812330310534F48C819D818130E4
:10250000910509F126C02C813D812330310531F040
:102510008C819D818430910541F01BC0E6E4F0E0A0
:1025200089819A819183808314C0EAE4F0E08981F3
:102530009A81918380830DC0E6E4F0E089819A81DD
:102540009183808306C0EAE4F0E089819A819183D7
:1025500080830F900F900F900F900F90CF91DF918D
:102560000895DF93CF9300D0CDB7DEB79A838983E8
:10257000EAE4F0E089819A81918380830F900F9043
:10258000CF91DF910895DF93CF9300D00F92CDB715
:10259000DEB789838981282F30E03B832A838A81B3
:1025A0009B81009731F02A813B812130310549F030
:1025B0000FC0AEE4B0E0EEE4F0E0808180648C9384
:1025C00007C0AEE4B0E0EEE4F0E080818F7B8C9356
:1025D0000F900F900F90CF91DF910895DF93CF93DD
:1025E000CDB7DEB7A9E5B0E0E9E5F0E08081806233
:1025F0008C93CF91DF910895DF93CF93CDB7DEB762
:10260000A9E5B0E0E9E5F0E080818F7D8C93CF9182
:10261000DF910895DF93CF93CDB7DEB7E6E4F0E026
:1026200080819181CF91DF910895DF93CF9300D086
:10263000CDB7DEB79A83898389819A819093790196
:10264000809378010F900F90CF91DF910895DF93E1
:10265000CF93CDB7DEB7ECE4F0E011821082E6E470
:10266000F0E011821082CF91DF9108951F920F92B6
:102670000FB60F9211242F933F934F935F936F9355
:102680007F938F939F93AF93BF93EF93FF93DF93CA
:10269000CF93CDB7DEB78091780190917901009703
:1026A00029F0E0917801F09179010995CF91DF91BE
:1026B000FF91EF91BF91AF919F918F917F916F911A
:1026C0005F914F913F912F910F900FBE0F901F90F0
:1026D0001895DF93CF93CDB7DEB783E064E040E099
:1026E0000E94681080E29EE463E00E946412CF9131
:1026F000DF910895DF93CF9300D0CDB7DEB79A83F3
:10270000898389819A810E94B1120F900F90CF9195
:10271000DF910895DF93CF9300D0CDB7DEB79A83D2
:10272000898382E064E041E00E94FF0982E065E085
:1027300041E00E94FF0982E067E041E00E94FF095A
:1027400082E066E040E00E94FF09EDE2F0E080E513
:102750008083ADE2B0E0EDE2F0E0808180628C93B6
:10276000ADE2B0E0EDE2F0E08081382FE981FA815E
:102770008081882F90E0880F991F880F991F880FFC
:10278000991F282FE981FA818181882F90E0880F95
:10279000991F880F991F822B832B8C93ADE2B0E099
:1027A000EDE2F0E08081982FE981FA8182818370E7
:1027B000892B8C93AEE2B0E0EEE2F0E08081282F2E
:1027C000E981FA818281882F90E0847090709595DC
:1027D000879595958795822B8C930F900F90CF912D
:1027E000DF910895DF93CF9300D0CDB7DEB79A8302
:1027F000898382E066E041E00E94FF0982E064E0B4
:1028000040E00E94FF0982E065E040E00E94FF098D
:1028100082E067E040E00E94FF09ADE2B0E0EDE257
:10282000F0E0808180648C93ADE2B0E0EDE2F0E016
:10283000808180628C93ADE2B0E0EDE2F0E08081D7
:10284000382FE981FA818081882F90E0880F991FC5
:10285000880F991F880F991F282FE981FA8181819C
:10286000882F90E0880F991F880F991F822B832B48
:102870008C93AEE2B0E0EEE2F0E080818E7F8C934C
:102880000F900F90CF91DF910895DF93CF930F9228
:10289000CDB7DEB78983EFE2F0E089818083EEE295
:1028A000F0E080818823DCF7EFE2F0E080810F9098
:1028B000CF91DF910895DF93CF9300D00F92CDB7E2
:1028C000DEB79B838A8319820BC0EA81FB818081FA
:1028D0000E94451489838A819B8101969B838A8308
:1028E000EA81FB818081882381F70F900F900F9000
:1028F000CF91DF9108950F931F93DF93CF9300D073
:102900000F92CDB7DEB79B838A838FEF898389814E
:102910008F5F89838981282F30E08A819B818C0198
:10292000020F131F8FEF0E944514F80180838981E5
:10293000282F30E08A819B81FC01E20FF31F808108
:10294000833229F78981282F30E08A819B81FC011D
:10295000E20FF31F10820F900F900F90CF91DF9135
:102960001F910F910895DF93CF93CDB7DEB7AFE5F9
:10297000B0E0EFE5F0E0808180688C93CF91DF914B
:102980000895DF93CF93CDB7DEB7AFE5B0E0EFE5C5
:10299000F0E080818F778C93CF91DF910895DF9362
:1029A000CF9300D000D000D0CDB7DEB79E838D830B
:1029B0008D819E81CC01A0E0B0E0BC01CD010E94E0
:1029C000A904DC01CB01BC01CD0123E333E343E3E4
:1029D0005FE30E941903DC01CB01BC01CD0120E0C3
:1029E00030E040E85FE30E94F201DC01CB01BC0172
:1029F000CD010E944900DC01CB019C838B831A82AC
:102A000019820DC00E9458150E94E7150E94761683
:102A10000E94051789819A8101969A838983298169
:102A20003A818B819C812817390760F326960FB66F
:102A3000F894DEBF0FBECDBFCF91DF910895DF9335
:102A4000CF93CDB7DEB70E9405170E9476160E947D
:102A5000E7150E945815CF91DF910895DF93CF932A
:102A6000CDB7DEB70E9458150E94E7150E94761672
:102A70000E940517CF91DF910895DF93CF93CDB7D3
:102A8000DEB784E060E040E00E94010B84E061E09A
:102A900040E00E94010B84E062E040E00E94010BF4
:102AA00084E063E040E00E94010BCF91DF91089544
:102AB000DF93CF93CDB7DEB72E970FB6F894DEBF76
:102AC0000FBECDBF84E060E041E00E94010B80E0DA
:102AD00090E0A0E0B0E48B879C87AD87BE876B85D4
:102AE0007C858D859E8520E030E04AEF54E40E948D
:102AF0001F02DC01CB018F839887A987BA876F817A
:102B0000788589859A8520E030E040E85FE30E947F
:102B1000250488232CF481E090E09E838D833FC0C0
:102B20006F81788589859A8520E03FEF4FE757E4EC
:102B30000E94C50318164CF56B857C858D859E8596
:102B400020E030E040E251E40E941F02DC01CB01B2
:102B5000BC01CD010E944900DC01CB019E838D8325
:102B60000FC088EC90E09C838B838B819C810197C4
:102B7000F1F79C838B838D819E8101979E838D834A
:102B80008D819E81009769F714C06F817885898552
:102B90009A850E944900DC01CB019E838D838D8143
:102BA0009E819A83898389819A810197F1F79A831B
:102BB000898384E060E040E00E94010B2E960FB60E
:102BC000F894DEBF0FBECDBFCF91DF910895DF93A4
:102BD000CF93CDB7DEB72E970FB6F894DEBF0FBEFA
:102BE000CDBF84E061E041E00E94010B80E090E015
:102BF000A0E0B0E48B879C87AD87BE876B857C8522
:102C00008D859E8520E030E04AEF54E40E941F024B
:102C1000DC01CB018F839887A987BA876F8178857C
:102C200089859A8520E030E040E85FE30E94250432
:102C300088232CF481E090E09E838D833FC06F81D8
:102C4000788589859A8520E03FEF4FE757E40E9419
:102C5000C50318164CF56B857C858D859E8520E017
:102C600030E040E251E40E941F02DC01CB01BC01D4
:102C7000CD010E944900DC01CB019E838D830FC0F2
:102C800088EC90E09C838B838B819C810197F1F78A
:102C90009C838B838D819E8101979E838D838D8103
:102CA0009E81009769F714C06F81788589859A8520
:102CB0000E944900DC01CB019E838D838D819E8122
:102CC0009A83898389819A810197F1F79A8389830D
:102CD00084E061E040E00E94010B2E960FB6F8946C
:102CE000DEBF0FBECDBFCF91DF910895DF93CF93AD
:102CF000CDB7DEB72E970FB6F894DEBF0FBECDBFAF
:102D000084E062E041E00E94010B80E090E0A0E0FE
:102D1000B0E48B879C87AD87BE876B857C858D856E
:102D20009E8520E030E04AEF54E40E941F02DC015F
:102D3000CB018F839887A987BA876F81788589852A
:102D40009A8520E030E040E85FE30E942504882374
:102D50002CF481E090E09E838D833FC06F81788565
:102D600089859A8520E03FEF4FE757E40E94C5032D
:102D700018164CF56B857C858D859E8520E030E0AE
:102D800040E251E40E941F02DC01CB01BC01CD01F5
:102D90000E944900DC01CB019E838D830FC088EC2B
:102DA00090E09C838B838B819C810197F1F79C83BE
:102DB0008B838D819E8101979E838D838D819E81E2
:102DC000009769F714C06F81788589859A850E947C
:102DD0004900DC01CB019E838D838D819E819A8386
:102DE000898389819A810197F1F79A83898384E0A5
:102DF00062E040E00E94010B2E960FB6F894DEBF11
:102E00000FBECDBFCF91DF910895DF93CF93CDB7A4
:102E1000DEB72E970FB6F894DEBF0FBECDBF84E0AD
:102E200063E041E00E94010B80E090E0A0E0B0E4AC
:102E30008B879C87AD87BE876B857C858D859E85BE
:102E400020E030E04AEF54E40E941F02DC01CB0195
:102E50008F839887A987BA876F81788589859A85B6
:102E600020E030E040E85FE30E94250488232CF452
:102E700081E090E09E838D833FC06F817885898556
:102E80009A8520E03FEF4FE757E40E94C5031816EC
:102E90004CF56B857C858D859E8520E030E040E299
:102EA00051E40E941F02DC01CB01BC01CD010E9454
:102EB0004900DC01CB019E838D830FC088EC90E03C
:102EC0009C838B838B819C810197F1F79C838B83FF
:102ED0008D819E8101979E838D838D819E81009738
:102EE00069F714C06F81788589859A850E944900A9
:102EF000DC01CB019E838D838D819E819A838983A2
:102F000089819A810197F1F79A83898384E063E04C
:102F100040E00E94010B2E960FB6F894DEBF0FBE64
:102F2000CDBFCF91DF910895991B79E004C0991F1F
:102F3000961708F0961B881F7A95C9F78095089513
:102F40002F923F924F925F926F927F928F929F92B9
:102F5000AF92BF92CF92DF92EF92FF920F931F93A7
:102F6000CF93DF93CDB7DEB7CA1BDB0B0FB6F89458
:102F7000DEBF0FBECDBF09942A88398848885F8498
:102F80006E847D848C849B84AA84B984C884DF8009
:102F9000EE80FD800C811B81AA81B981CE0FD11DED
:102FA0000FB6F894DEBF0FBECDBFED010895F894C3
:022FB000FFCF51
:102FB20000000000000000000001020203030303FE
:102FC20004040404040404040505050505050505B7
:102FD2000505050505050505060606060606060697
:102FE200060606060606060606060606060606067F
:102FF2000606060606060606070707070707070767
:10300200070707070707070707070707070707074E
:10301200070707070707070707070707070707073E
:10302200070707070707070707070707070707072E
:103032000707070707070707080808080808080816
:1030420008080808080808080808080808080808FE
:1030520008080808080808080808080808080808EE
:1030620008080808080808080808080808080808DE
:1030720008080808080808080808080808080808CE
:1030820008080808080808080808080808080808BE
:1030920008080808080808080808080808080808AE
:1030A200080808080808080808080808080808089E
:1030B200080808080808080840792430191202781C
:0630C200001000000700F1
:00000001FF
